{
  "_format": "hh-sol-artifact-1",
  "contractName": "CarbonChain",
  "sourceName": "contracts/amazoncoin.sol",
  "abi": [
    {
      "inputs": [
        {
          "internalType": "string",
          "name": "tokenName",
          "type": "string"
        },
        {
          "internalType": "string",
          "name": "tokenSymbol",
          "type": "string"
        },
        {
          "internalType": "uint8",
          "name": "decimalUnits",
          "type": "uint8"
        },
        {
          "internalType": "uint256",
          "name": "initialSupply",
          "type": "uint256"
        },
        {
          "internalType": "uint256",
          "name": "pricePerToken",
          "type": "uint256"
        }
      ],
      "stateMutability": "nonpayable",
      "type": "constructor"
    },
    {
      "anonymous": false,
      "inputs": [
        {
          "indexed": true,
          "internalType": "address",
          "name": "owner",
          "type": "address"
        },
        {
          "indexed": true,
          "internalType": "address",
          "name": "spender",
          "type": "address"
        },
        {
          "indexed": false,
          "internalType": "uint256",
          "name": "value",
          "type": "uint256"
        }
      ],
      "name": "Approval",
      "type": "event"
    },
    {
      "anonymous": false,
      "inputs": [
        {
          "indexed": true,
          "internalType": "address",
          "name": "account",
          "type": "address"
        },
        {
          "indexed": false,
          "internalType": "uint256",
          "name": "amount",
          "type": "uint256"
        }
      ],
      "name": "CarbonOffsetsClaimed",
      "type": "event"
    },
    {
      "anonymous": false,
      "inputs": [
        {
          "indexed": false,
          "internalType": "string",
          "name": "cid",
          "type": "string"
        }
      ],
      "name": "Googledeets",
      "type": "event"
    },
    {
      "anonymous": false,
      "inputs": [
        {
          "indexed": true,
          "internalType": "address",
          "name": "buyer",
          "type": "address"
        },
        {
          "indexed": false,
          "internalType": "uint256",
          "name": "amount",
          "type": "uint256"
        }
      ],
      "name": "TokensPurchased",
      "type": "event"
    },
    {
      "anonymous": false,
      "inputs": [
        {
          "indexed": true,
          "internalType": "address",
          "name": "seller",
          "type": "address"
        },
        {
          "indexed": false,
          "internalType": "uint256",
          "name": "amount",
          "type": "uint256"
        }
      ],
      "name": "TokensSold",
      "type": "event"
    },
    {
      "anonymous": false,
      "inputs": [
        {
          "indexed": true,
          "internalType": "address",
          "name": "from",
          "type": "address"
        },
        {
          "indexed": true,
          "internalType": "address",
          "name": "to",
          "type": "address"
        },
        {
          "indexed": false,
          "internalType": "uint256",
          "name": "value",
          "type": "uint256"
        }
      ],
      "name": "Transfer",
      "type": "event"
    },
    {
      "inputs": [
        {
          "internalType": "address",
          "name": "",
          "type": "address"
        },
        {
          "internalType": "address",
          "name": "",
          "type": "address"
        }
      ],
      "name": "allowance",
      "outputs": [
        {
          "internalType": "uint256",
          "name": "",
          "type": "uint256"
        }
      ],
      "stateMutability": "view",
      "type": "function"
    },
    {
      "inputs": [
        {
          "internalType": "address",
          "name": "spender",
          "type": "address"
        },
        {
          "internalType": "uint256",
          "name": "value",
          "type": "uint256"
        }
      ],
      "name": "approve",
      "outputs": [
        {
          "internalType": "bool",
          "name": "",
          "type": "bool"
        }
      ],
      "stateMutability": "nonpayable",
      "type": "function"
    },
    {
      "inputs": [
        {
          "internalType": "address",
          "name": "account",
          "type": "address"
        }
      ],
      "name": "balanceOf",
      "outputs": [
        {
          "internalType": "uint256",
          "name": "",
          "type": "uint256"
        }
      ],
      "stateMutability": "view",
      "type": "function"
    },
    {
      "inputs": [
        {
          "internalType": "uint256",
          "name": "numberOfTokens",
          "type": "uint256"
        }
      ],
      "name": "buyTokens",
      "outputs": [],
      "stateMutability": "payable",
      "type": "function"
    },
    {
      "inputs": [
        {
          "internalType": "address",
          "name": "",
          "type": "address"
        }
      ],
      "name": "carbonOffsets",
      "outputs": [
        {
          "internalType": "uint256",
          "name": "",
          "type": "uint256"
        }
      ],
      "stateMutability": "view",
      "type": "function"
    },
    {
      "inputs": [
        {
          "internalType": "uint256",
          "name": "amount",
          "type": "uint256"
        }
      ],
      "name": "claimCarbonOffsets",
      "outputs": [],
      "stateMutability": "nonpayable",
      "type": "function"
    },
    {
      "inputs": [],
      "name": "decimals",
      "outputs": [
        {
          "internalType": "uint8",
          "name": "",
          "type": "uint8"
        }
      ],
      "stateMutability": "view",
      "type": "function"
    },
    {
      "inputs": [],
      "name": "name",
      "outputs": [
        {
          "internalType": "string",
          "name": "",
          "type": "string"
        }
      ],
      "stateMutability": "view",
      "type": "function"
    },
    {
      "inputs": [
        {
          "internalType": "uint256",
          "name": "numberOfTokens",
          "type": "uint256"
        }
      ],
      "name": "sellTokens",
      "outputs": [],
      "stateMutability": "nonpayable",
      "type": "function"
    },
    {
      "inputs": [],
      "name": "symbol",
      "outputs": [
        {
          "internalType": "string",
          "name": "",
          "type": "string"
        }
      ],
      "stateMutability": "view",
      "type": "function"
    },
    {
      "inputs": [
        {
          "internalType": "address",
          "name": "",
          "type": "address"
        }
      ],
      "name": "tokenBalance",
      "outputs": [
        {
          "internalType": "uint256",
          "name": "",
          "type": "uint256"
        }
      ],
      "stateMutability": "view",
      "type": "function"
    },
    {
      "inputs": [],
      "name": "tokenPrice",
      "outputs": [
        {
          "internalType": "uint256",
          "name": "",
          "type": "uint256"
        }
      ],
      "stateMutability": "view",
      "type": "function"
    },
    {
      "inputs": [],
      "name": "totalSupply",
      "outputs": [
        {
          "internalType": "uint256",
          "name": "",
          "type": "uint256"
        }
      ],
      "stateMutability": "view",
      "type": "function"
    },
    {
      "inputs": [
        {
          "internalType": "address",
          "name": "to",
          "type": "address"
        },
        {
          "internalType": "uint256",
          "name": "value",
          "type": "uint256"
        },
        {
          "internalType": "string",
          "name": "cid",
          "type": "string"
        }
      ],
      "name": "transfer",
      "outputs": [
        {
          "internalType": "bool",
          "name": "",
          "type": "bool"
        }
      ],
      "stateMutability": "nonpayable",
      "type": "function"
    },
    {
      "inputs": [
        {
          "internalType": "address",
          "name": "from",
          "type": "address"
        },
        {
          "internalType": "address",
          "name": "to",
          "type": "address"
        },
        {
          "internalType": "uint256",
          "name": "value",
          "type": "uint256"
        }
      ],
      "name": "transferFrom",
      "outputs": [
        {
          "internalType": "bool",
          "name": "",
          "type": "bool"
        }
      ],
      "stateMutability": "nonpayable",
      "type": "function"
    }
  ],
  "bytecode": "0x60806040523480156200001157600080fd5b506040516200287e3803806200287e8339818101604052810190620000379190620002fe565b846004908162000048919062000605565b5083600590816200005a919062000605565b5082600660006101000a81548160ff021916908360ff1602179055508260ff16600a6200008891906200086f565b82620000959190620008c0565b600381905550806007819055506003546000803373ffffffffffffffffffffffffffffffffffffffff1673ffffffffffffffffffffffffffffffffffffffff1681526020019081526020016000208190555050505050506200090b565b6000604051905090565b600080fd5b600080fd5b600080fd5b600080fd5b6000601f19601f8301169050919050565b7f4e487b7100000000000000000000000000000000000000000000000000000000600052604160045260246000fd5b6200015b8262000110565b810181811067ffffffffffffffff821117156200017d576200017c62000121565b5b80604052505050565b600062000192620000f2565b9050620001a0828262000150565b919050565b600067ffffffffffffffff821115620001c357620001c262000121565b5b620001ce8262000110565b9050602081019050919050565b60005b83811015620001fb578082015181840152602081019050620001de565b60008484015250505050565b60006200021e6200021884620001a5565b62000186565b9050828152602081018484840111156200023d576200023c6200010b565b5b6200024a848285620001db565b509392505050565b600082601f8301126200026a576200026962000106565b5b81516200027c84826020860162000207565b91505092915050565b600060ff82169050919050565b6200029d8162000285565b8114620002a957600080fd5b50565b600081519050620002bd8162000292565b92915050565b6000819050919050565b620002d881620002c3565b8114620002e457600080fd5b50565b600081519050620002f881620002cd565b92915050565b600080600080600060a086880312156200031d576200031c620000fc565b5b600086015167ffffffffffffffff8111156200033e576200033d62000101565b5b6200034c8882890162000252565b955050602086015167ffffffffffffffff81111562000370576200036f62000101565b5b6200037e8882890162000252565b94505060406200039188828901620002ac565b9350506060620003a488828901620002e7565b9250506080620003b788828901620002e7565b9150509295509295909350565b600081519050919050565b7f4e487b7100000000000000000000000000000000000000000000000000000000600052602260045260246000fd5b600060028204905060018216806200041757607f821691505b6020821081036200042d576200042c620003cf565b5b50919050565b60008190508160005260206000209050919050565b60006020601f8301049050919050565b600082821b905092915050565b600060088302620004977fffffffffffffffffffffffffffffffffffffffffffffffffffffffffffffffff8262000458565b620004a3868362000458565b95508019841693508086168417925050509392505050565b6000819050919050565b6000620004e6620004e0620004da84620002c3565b620004bb565b620002c3565b9050919050565b6000819050919050565b6200050283620004c5565b6200051a6200051182620004ed565b84845462000465565b825550505050565b600090565b6200053162000522565b6200053e818484620004f7565b505050565b5b8181101562000566576200055a60008262000527565b60018101905062000544565b5050565b601f821115620005b5576200057f8162000433565b6200058a8462000448565b810160208510156200059a578190505b620005b2620005a98562000448565b83018262000543565b50505b505050565b600082821c905092915050565b6000620005da60001984600802620005ba565b1980831691505092915050565b6000620005f58383620005c7565b9150826002028217905092915050565b6200061082620003c4565b67ffffffffffffffff8111156200062c576200062b62000121565b5b620006388254620003fe565b620006458282856200056a565b600060209050601f8311600181146200067d576000841562000668578287015190505b620006748582620005e7565b865550620006e4565b601f1984166200068d8662000433565b60005b82811015620006b75784890151825560018201915060208501945060208101905062000690565b86831015620006d75784890151620006d3601f891682620005c7565b8355505b6001600288020188555050505b505050505050565b7f4e487b7100000000000000000000000000000000000000000000000000000000600052601160045260246000fd5b60008160011c9050919050565b6000808291508390505b60018511156200077a57808604811115620007525762000751620006ec565b5b6001851615620007625780820291505b808102905062000772856200071b565b945062000732565b94509492505050565b60008262000795576001905062000868565b81620007a5576000905062000868565b8160018114620007be5760028114620007c957620007ff565b600191505062000868565b60ff841115620007de57620007dd620006ec565b5b8360020a915084821115620007f857620007f7620006ec565b5b5062000868565b5060208310610133831016604e8410600b8410161715620008395782820a905083811115620008335762000832620006ec565b5b62000868565b62000848848484600162000728565b92509050818404811115620008625762000861620006ec565b5b81810290505b9392505050565b60006200087c82620002c3565b91506200088983620002c3565b9250620008b87fffffffffffffffffffffffffffffffffffffffffffffffffffffffffffffffff848462000783565b905092915050565b6000620008cd82620002c3565b9150620008da83620002c3565b9250828202620008ea81620002c3565b91508282048414831517620009045762000903620006ec565b5b5092915050565b611f63806200091b6000396000f3fe6080604052600436106100e85760003560e01c806356b8c7241161008a57806395d89b411161005957806395d89b411461030f578063b61332171461033a578063dd62ed3e14610363578063eedc966a146103a0576100e8565b806356b8c724146102415780636c11bcd31461027e57806370a08231146102a75780637ff9b596146102e4576100e8565b806323b872dd116100c657806323b872dd146101805780632670e79d146101bd578063313ce567146101fa5780633610724e14610225576100e8565b806306fdde03146100ed578063095ea7b31461011857806318160ddd14610155575b600080fd5b3480156100f957600080fd5b506101026103dd565b60405161010f9190611478565b60405180910390f35b34801561012457600080fd5b5061013f600480360381019061013a9190611542565b61046b565b60405161014c919061159d565b60405180910390f35b34801561016157600080fd5b5061016a6105cb565b60405161017791906115c7565b60405180910390f35b34801561018c57600080fd5b506101a760048036038101906101a291906115e2565b6105d1565b6040516101b4919061159d565b60405180910390f35b3480156101c957600080fd5b506101e460048036038101906101df9190611635565b6109e0565b6040516101f191906115c7565b60405180910390f35b34801561020657600080fd5b5061020f6109f8565b60405161021c919061167e565b60405180910390f35b61023f600480360381019061023a9190611699565b610a0b565b005b34801561024d57600080fd5b50610268600480360381019061026391906117fb565b610c48565b604051610275919061159d565b60405180910390f35b34801561028a57600080fd5b506102a560048036038101906102a09190611699565b610ecd565b005b3480156102b357600080fd5b506102ce60048036038101906102c99190611635565b61110f565b6040516102db91906115c7565b60405180910390f35b3480156102f057600080fd5b506102f9611157565b60405161030691906115c7565b60405180910390f35b34801561031b57600080fd5b5061032461115d565b6040516103319190611478565b60405180910390f35b34801561034657600080fd5b50610361600480360381019061035c9190611699565b6111eb565b005b34801561036f57600080fd5b5061038a6004803603810190610385919061186a565b6113ab565b60405161039791906115c7565b60405180910390f35b3480156103ac57600080fd5b506103c760048036038101906103c29190611635565b6113d0565b6040516103d491906115c7565b60405180910390f35b600480546103ea906118d9565b80601f0160208091040260200160405190810160405280929190818152602001828054610416906118d9565b80156104635780601f1061043857610100808354040283529160200191610463565b820191906000526020600020905b81548152906001019060200180831161044657829003601f168201915b505050505081565b60008073ffffffffffffffffffffffffffffffffffffffff168373ffffffffffffffffffffffffffffffffffffffff16036104db576040517f08c379a00000000000000000000000000000000000000000000000000000000081526004016104d290611956565b60405180910390fd5b81600160003373ffffffffffffffffffffffffffffffffffffffff1673ffffffffffffffffffffffffffffffffffffffff16815260200190815260200160002060008573ffffffffffffffffffffffffffffffffffffffff1673ffffffffffffffffffffffffffffffffffffffff168152602001908152602001600020819055508273ffffffffffffffffffffffffffffffffffffffff163373ffffffffffffffffffffffffffffffffffffffff167f8c5be1e5ebec7d5bd14f71427d1e84f3dd0314c0f7b2291e5b200ac8c7c3b925846040516105b991906115c7565b60405180910390a36001905092915050565b60035481565b60008073ffffffffffffffffffffffffffffffffffffffff168473ffffffffffffffffffffffffffffffffffffffff1603610641576040517f08c379a0000000000000000000000000000000000000000000000000000000008152600401610638906119c2565b60405180910390fd5b600073ffffffffffffffffffffffffffffffffffffffff168373ffffffffffffffffffffffffffffffffffffffff16036106b0576040517f08c379a00000000000000000000000000000000000000000000000000000000081526004016106a790611a2e565b60405180910390fd5b600082116106f3576040517f08c379a00000000000000000000000000000000000000000000000000000000081526004016106ea90611a9a565b60405180910390fd5b816000808673ffffffffffffffffffffffffffffffffffffffff1673ffffffffffffffffffffffffffffffffffffffff168152602001908152602001600020541015610774576040517f08c379a000000000000000000000000000000000000000000000000000000000815260040161076b90611b06565b60405180910390fd5b81600160008673ffffffffffffffffffffffffffffffffffffffff1673ffffffffffffffffffffffffffffffffffffffff16815260200190815260200160002060003373ffffffffffffffffffffffffffffffffffffffff1673ffffffffffffffffffffffffffffffffffffffff168152602001908152602001600020541015610833576040517f08c379a000000000000000000000000000000000000000000000000000000000815260040161082a90611b72565b60405180910390fd5b816000808673ffffffffffffffffffffffffffffffffffffffff1673ffffffffffffffffffffffffffffffffffffffff16815260200190815260200160002060008282546108819190611bc1565b92505081905550816000808573ffffffffffffffffffffffffffffffffffffffff1673ffffffffffffffffffffffffffffffffffffffff16815260200190815260200160002060008282546108d69190611bf5565b9250508190555081600160008673ffffffffffffffffffffffffffffffffffffffff1673ffffffffffffffffffffffffffffffffffffffff16815260200190815260200160002060003373ffffffffffffffffffffffffffffffffffffffff1673ffffffffffffffffffffffffffffffffffffffff16815260200190815260200160002060008282546109699190611bc1565b925050819055508273ffffffffffffffffffffffffffffffffffffffff168473ffffffffffffffffffffffffffffffffffffffff167fddf252ad1be2c89b69c2b068fc378daa952ba7f163c4a11628f55a4df523b3ef846040516109cd91906115c7565b60405180910390a3600190509392505050565b60026020528060005260406000206000915090505481565b600660009054906101000a900460ff1681565b60075481610a199190611c29565b3414610a5a576040517f08c379a0000000000000000000000000000000000000000000000000000000008152600401610a5190611cb7565b60405180910390fd5b60008111610a9d576040517f08c379a0000000000000000000000000000000000000000000000000000000008152600401610a9490611a9a565b60405180910390fd5b6000600660009054906101000a900460ff1660ff16600a610abe9190611e0a565b82610ac99190611c29565b9050806000803073ffffffffffffffffffffffffffffffffffffffff1673ffffffffffffffffffffffffffffffffffffffff168152602001908152602001600020541015610b4c576040517f08c379a0000000000000000000000000000000000000000000000000000000008152600401610b4390611ea1565b60405180910390fd5b806000803073ffffffffffffffffffffffffffffffffffffffff1673ffffffffffffffffffffffffffffffffffffffff1681526020019081526020016000206000828254610b9a9190611bc1565b92505081905550806000803373ffffffffffffffffffffffffffffffffffffffff1673ffffffffffffffffffffffffffffffffffffffff1681526020019081526020016000206000828254610bef9190611bf5565b925050819055503373ffffffffffffffffffffffffffffffffffffffff167f8f28852646c20cc973d3a8218f7eefed58c25c909f78f0265af4818c3d4dc27182604051610c3c91906115c7565b60405180910390a25050565b60008073ffffffffffffffffffffffffffffffffffffffff168473ffffffffffffffffffffffffffffffffffffffff1603610cb8576040517f08c379a0000000000000000000000000000000000000000000000000000000008152600401610caf90611a2e565b60405180910390fd5b60008311610cfb576040517f08c379a0000000000000000000000000000000000000000000000000000000008152600401610cf290611a9a565b60405180910390fd5b826000803373ffffffffffffffffffffffffffffffffffffffff1673ffffffffffffffffffffffffffffffffffffffff168152602001908152602001600020541015610d7c576040517f08c379a0000000000000000000000000000000000000000000000000000000008152600401610d7390611b06565b60405180910390fd5b826000803373ffffffffffffffffffffffffffffffffffffffff1673ffffffffffffffffffffffffffffffffffffffff1681526020019081526020016000206000828254610dca9190611bc1565b92505081905550826000808673ffffffffffffffffffffffffffffffffffffffff1673ffffffffffffffffffffffffffffffffffffffff1681526020019081526020016000206000828254610e1f9190611bf5565b925050819055508373ffffffffffffffffffffffffffffffffffffffff163373ffffffffffffffffffffffffffffffffffffffff167fddf252ad1be2c89b69c2b068fc378daa952ba7f163c4a11628f55a4df523b3ef85604051610e8391906115c7565b60405180910390a37f61a3d4ded8fe2befab7c6baed5395a322aa60e1d55be7e05e641a91a9d73428f82604051610eba9190611478565b60405180910390a1600190509392505050565b60008111610f10576040517f08c379a0000000000000000000000000000000000000000000000000000000008152600401610f0790611a9a565b60405180910390fd5b806000803373ffffffffffffffffffffffffffffffffffffffff1673ffffffffffffffffffffffffffffffffffffffff168152602001908152602001600020541015610f91576040517f08c379a0000000000000000000000000000000000000000000000000000000008152600401610f8890611b06565b60405180910390fd5b6000600660009054906101000a900460ff1660ff16600a610fb29190611e0a565b82610fbd9190611c29565b9050806000803373ffffffffffffffffffffffffffffffffffffffff1673ffffffffffffffffffffffffffffffffffffffff168152602001908152602001600020600082825461100d9190611bc1565b92505081905550806000803073ffffffffffffffffffffffffffffffffffffffff1673ffffffffffffffffffffffffffffffffffffffff16815260200190815260200160002060008282546110629190611bf5565b925050819055503373ffffffffffffffffffffffffffffffffffffffff166108fc600754846110919190611c29565b9081150290604051600060405180830381858888f193505050501580156110bc573d6000803e3d6000fd5b503373ffffffffffffffffffffffffffffffffffffffff167f57d61f3ccd4ccd25ec5d234d6049553a586fac134c85c98d0b0d9d5724f4e43e8260405161110391906115c7565b60405180910390a25050565b60008060008373ffffffffffffffffffffffffffffffffffffffff1673ffffffffffffffffffffffffffffffffffffffff168152602001908152602001600020549050919050565b60075481565b6005805461116a906118d9565b80601f0160208091040260200160405190810160405280929190818152602001828054611196906118d9565b80156111e35780601f106111b8576101008083540402835291602001916111e3565b820191906000526020600020905b8154815290600101906020018083116111c657829003601f168201915b505050505081565b6000811161122e576040517f08c379a000000000000000000000000000000000000000000000000000000000815260040161122590611f0d565b60405180910390fd5b806000803373ffffffffffffffffffffffffffffffffffffffff1673ffffffffffffffffffffffffffffffffffffffff1681526020019081526020016000205410156112af576040517f08c379a00000000000000000000000000000000000000000000000000000000081526004016112a690611b06565b60405180910390fd5b806000803373ffffffffffffffffffffffffffffffffffffffff1673ffffffffffffffffffffffffffffffffffffffff16815260200190815260200160002060008282546112fd9190611bc1565b9250508190555080600260003373ffffffffffffffffffffffffffffffffffffffff1673ffffffffffffffffffffffffffffffffffffffff16815260200190815260200160002060008282546113539190611bf5565b925050819055503373ffffffffffffffffffffffffffffffffffffffff167f8a6dcaaa904eb3b997e19410c9974fb615a270c3c62e33ae02d9d80a08439e23826040516113a091906115c7565b60405180910390a250565b6001602052816000526040600020602052806000526040600020600091509150505481565b60006020528060005260406000206000915090505481565b600081519050919050565b600082825260208201905092915050565b60005b83811015611422578082015181840152602081019050611407565b60008484015250505050565b6000601f19601f8301169050919050565b600061144a826113e8565b61145481856113f3565b9350611464818560208601611404565b61146d8161142e565b840191505092915050565b60006020820190508181036000830152611492818461143f565b905092915050565b6000604051905090565b600080fd5b600080fd5b600073ffffffffffffffffffffffffffffffffffffffff82169050919050565b60006114d9826114ae565b9050919050565b6114e9816114ce565b81146114f457600080fd5b50565b600081359050611506816114e0565b92915050565b6000819050919050565b61151f8161150c565b811461152a57600080fd5b50565b60008135905061153c81611516565b92915050565b60008060408385031215611559576115586114a4565b5b6000611567858286016114f7565b92505060206115788582860161152d565b9150509250929050565b60008115159050919050565b61159781611582565b82525050565b60006020820190506115b2600083018461158e565b92915050565b6115c18161150c565b82525050565b60006020820190506115dc60008301846115b8565b92915050565b6000806000606084860312156115fb576115fa6114a4565b5b6000611609868287016114f7565b935050602061161a868287016114f7565b925050604061162b8682870161152d565b9150509250925092565b60006020828403121561164b5761164a6114a4565b5b6000611659848285016114f7565b91505092915050565b600060ff82169050919050565b61167881611662565b82525050565b6000602082019050611693600083018461166f565b92915050565b6000602082840312156116af576116ae6114a4565b5b60006116bd8482850161152d565b91505092915050565b600080fd5b600080fd5b7f4e487b7100000000000000000000000000000000000000000000000000000000600052604160045260246000fd5b6117088261142e565b810181811067ffffffffffffffff82111715611727576117266116d0565b5b80604052505050565b600061173a61149a565b905061174682826116ff565b919050565b600067ffffffffffffffff821115611766576117656116d0565b5b61176f8261142e565b9050602081019050919050565b82818337600083830152505050565b600061179e6117998461174b565b611730565b9050828152602081018484840111156117ba576117b96116cb565b5b6117c584828561177c565b509392505050565b600082601f8301126117e2576117e16116c6565b5b81356117f284826020860161178b565b91505092915050565b600080600060608486031215611814576118136114a4565b5b6000611822868287016114f7565b93505060206118338682870161152d565b925050604084013567ffffffffffffffff811115611854576118536114a9565b5b611860868287016117cd565b9150509250925092565b60008060408385031215611881576118806114a4565b5b600061188f858286016114f7565b92505060206118a0858286016114f7565b9150509250929050565b7f4e487b7100000000000000000000000000000000000000000000000000000000600052602260045260246000fd5b600060028204905060018216806118f157607f821691505b602082108103611904576119036118aa565b5b50919050565b7f496e76616c6964207370656e6465722061646472657373000000000000000000600082015250565b60006119406017836113f3565b915061194b8261190a565b602082019050919050565b6000602082019050818103600083015261196f81611933565b9050919050565b7f496e76616c69642073656e646572206164647265737300000000000000000000600082015250565b60006119ac6016836113f3565b91506119b782611976565b602082019050919050565b600060208201905081810360008301526119db8161199f565b9050919050565b7f496e76616c696420726563697069656e74206164647265737300000000000000600082015250565b6000611a186019836113f3565b9150611a23826119e2565b602082019050919050565b60006020820190508181036000830152611a4781611a0b565b9050919050565b7f496e76616c696420746f6b656e20616d6f756e74000000000000000000000000600082015250565b6000611a846014836113f3565b9150611a8f82611a4e565b602082019050919050565b60006020820190508181036000830152611ab381611a77565b9050919050565b7f496e73756666696369656e742062616c616e6365000000000000000000000000600082015250565b6000611af06014836113f3565b9150611afb82611aba565b602082019050919050565b60006020820190508181036000830152611b1f81611ae3565b9050919050565b7f496e73756666696369656e7420616c6c6f77616e636500000000000000000000600082015250565b6000611b5c6016836113f3565b9150611b6782611b26565b602082019050919050565b60006020820190508181036000830152611b8b81611b4f565b9050919050565b7f4e487b7100000000000000000000000000000000000000000000000000000000600052601160045260246000fd5b6000611bcc8261150c565b9150611bd78361150c565b9250828203905081811115611bef57611bee611b92565b5b92915050565b6000611c008261150c565b9150611c0b8361150c565b9250828201905080821115611c2357611c22611b92565b5b92915050565b6000611c348261150c565b9150611c3f8361150c565b9250828202611c4d8161150c565b91508282048414831517611c6457611c63611b92565b5b5092915050565b7f496e636f727265637420616d6f756e74206f662045746865722073656e740000600082015250565b6000611ca1601e836113f3565b9150611cac82611c6b565b602082019050919050565b60006020820190508181036000830152611cd081611c94565b9050919050565b60008160011c9050919050565b6000808291508390505b6001851115611d2e57808604811115611d0a57611d09611b92565b5b6001851615611d195780820291505b8081029050611d2785611cd7565b9450611cee565b94509492505050565b600082611d475760019050611e03565b81611d555760009050611e03565b8160018114611d6b5760028114611d7557611da4565b6001915050611e03565b60ff841115611d8757611d86611b92565b5b8360020a915084821115611d9e57611d9d611b92565b5b50611e03565b5060208310610133831016604e8410600b8410161715611dd95782820a905083811115611dd457611dd3611b92565b5b611e03565b611de68484846001611ce4565b92509050818404811115611dfd57611dfc611b92565b5b81810290505b9392505050565b6000611e158261150c565b9150611e208361150c565b9250611e4d7fffffffffffffffffffffffffffffffffffffffffffffffffffffffffffffffff8484611d37565b905092915050565b7f496e73756666696369656e7420746f6b656e2062616c616e6365000000000000600082015250565b6000611e8b601a836113f3565b9150611e9682611e55565b602082019050919050565b60006020820190508181036000830152611eba81611e7e565b9050919050565b7f496e76616c696420636172626f6e206f666673657420616d6f756e7400000000600082015250565b6000611ef7601c836113f3565b9150611f0282611ec1565b602082019050919050565b60006020820190508181036000830152611f2681611eea565b905091905056fea26469706673582212205914cd7dc19a9ff3677e8d27d6fb0263f23d75e1b0a206276f00bdf53a54acf264736f6c63430008130033",
  "linkReferences": {},
  "deployedLinkReferences": {}
}