{
  "_format": "hh-sol-artifact-1",
  "contractName": "AmazonasCoin",
  "sourceName": "contracts/amazoncoin.sol",
  "abi": [
    {
      "inputs": [
        {
          "internalType": "string",
          "name": "tokenName",
          "type": "string"
        },
        {
          "internalType": "string",
          "name": "tokenSymbol",
          "type": "string"
        },
        {
          "internalType": "uint8",
          "name": "decimalUnits",
          "type": "uint8"
        },
        {
          "internalType": "uint256",
          "name": "initialSupply",
          "type": "uint256"
        },
        {
          "internalType": "uint256",
          "name": "pricePerToken",
          "type": "uint256"
        }
      ],
      "stateMutability": "nonpayable",
      "type": "constructor"
    },
    {
      "anonymous": false,
      "inputs": [
        {
          "indexed": true,
          "internalType": "address",
          "name": "owner",
          "type": "address"
        },
        {
          "indexed": true,
          "internalType": "address",
          "name": "spender",
          "type": "address"
        },
        {
          "indexed": false,
          "internalType": "uint256",
          "name": "value",
          "type": "uint256"
        },
        {
          "indexed": false,
          "internalType": "uint256",
          "name": "timestamp",
          "type": "uint256"
        }
      ],
      "name": "Approval",
      "type": "event"
    },
    {
      "anonymous": false,
      "inputs": [
        {
          "indexed": false,
          "internalType": "string",
          "name": "cid",
          "type": "string"
        },
        {
          "indexed": false,
          "internalType": "uint256",
          "name": "timestamp",
          "type": "uint256"
        }
      ],
      "name": "CID",
      "type": "event"
    },
    {
      "anonymous": false,
      "inputs": [
        {
          "indexed": true,
          "internalType": "address",
          "name": "account",
          "type": "address"
        },
        {
          "indexed": false,
          "internalType": "uint256",
          "name": "amount",
          "type": "uint256"
        },
        {
          "indexed": false,
          "internalType": "uint256",
          "name": "timestamp",
          "type": "uint256"
        }
      ],
      "name": "CarbonOffsetsClaimed",
      "type": "event"
    },
    {
      "anonymous": false,
      "inputs": [
        {
          "indexed": false,
          "internalType": "string",
          "name": "cid",
          "type": "string"
        },
        {
          "indexed": false,
          "internalType": "string",
          "name": "project",
          "type": "string"
        },
        {
          "indexed": false,
          "internalType": "uint256",
          "name": "timestamp",
          "type": "uint256"
        }
      ],
      "name": "PublicDeforestationAnalysis",
      "type": "event"
    },
    {
      "anonymous": false,
      "inputs": [
        {
          "indexed": true,
          "internalType": "address",
          "name": "buyer",
          "type": "address"
        },
        {
          "indexed": false,
          "internalType": "uint256",
          "name": "amount",
          "type": "uint256"
        },
        {
          "indexed": false,
          "internalType": "uint256",
          "name": "timestamp",
          "type": "uint256"
        }
      ],
      "name": "TokensPurchased",
      "type": "event"
    },
    {
      "anonymous": false,
      "inputs": [
        {
          "indexed": true,
          "internalType": "address",
          "name": "seller",
          "type": "address"
        },
        {
          "indexed": false,
          "internalType": "uint256",
          "name": "amount",
          "type": "uint256"
        },
        {
          "indexed": false,
          "internalType": "uint256",
          "name": "timestamp",
          "type": "uint256"
        }
      ],
      "name": "TokensSold",
      "type": "event"
    },
    {
      "anonymous": false,
      "inputs": [
        {
          "indexed": true,
          "internalType": "address",
          "name": "from",
          "type": "address"
        },
        {
          "indexed": true,
          "internalType": "address",
          "name": "to",
          "type": "address"
        },
        {
          "indexed": false,
          "internalType": "uint256",
          "name": "value",
          "type": "uint256"
        }
      ],
      "name": "Transfer",
      "type": "event"
    },
    {
      "inputs": [
        {
          "internalType": "address",
          "name": "",
          "type": "address"
        },
        {
          "internalType": "address",
          "name": "",
          "type": "address"
        }
      ],
      "name": "allowance",
      "outputs": [
        {
          "internalType": "uint256",
          "name": "",
          "type": "uint256"
        }
      ],
      "stateMutability": "view",
      "type": "function"
    },
    {
      "inputs": [
        {
          "internalType": "address",
          "name": "spender",
          "type": "address"
        },
        {
          "internalType": "uint256",
          "name": "value",
          "type": "uint256"
        }
      ],
      "name": "approve",
      "outputs": [
        {
          "internalType": "bool",
          "name": "",
          "type": "bool"
        }
      ],
      "stateMutability": "nonpayable",
      "type": "function"
    },
    {
      "inputs": [
        {
          "internalType": "address",
          "name": "account",
          "type": "address"
        }
      ],
      "name": "balanceOf",
      "outputs": [
        {
          "internalType": "uint256",
          "name": "",
          "type": "uint256"
        }
      ],
      "stateMutability": "view",
      "type": "function"
    },
    {
      "inputs": [
        {
          "internalType": "uint256",
          "name": "numberOfTokens",
          "type": "uint256"
        }
      ],
      "name": "buyTokens",
      "outputs": [],
      "stateMutability": "payable",
      "type": "function"
    },
    {
      "inputs": [
        {
          "internalType": "address",
          "name": "account",
          "type": "address"
        }
      ],
      "name": "carbonOffs",
      "outputs": [
        {
          "internalType": "uint256",
          "name": "",
          "type": "uint256"
        }
      ],
      "stateMutability": "view",
      "type": "function"
    },
    {
      "inputs": [
        {
          "internalType": "address",
          "name": "",
          "type": "address"
        }
      ],
      "name": "carbonOffsets",
      "outputs": [
        {
          "internalType": "uint256",
          "name": "",
          "type": "uint256"
        }
      ],
      "stateMutability": "view",
      "type": "function"
    },
    {
      "inputs": [
        {
          "internalType": "uint256",
          "name": "amount",
          "type": "uint256"
        }
      ],
      "name": "claimCarbonOffsets",
      "outputs": [],
      "stateMutability": "nonpayable",
      "type": "function"
    },
    {
      "inputs": [],
      "name": "decimals",
      "outputs": [
        {
          "internalType": "uint8",
          "name": "",
          "type": "uint8"
        }
      ],
      "stateMutability": "view",
      "type": "function"
    },
    {
      "inputs": [
        {
          "internalType": "string",
          "name": "cid",
          "type": "string"
        },
        {
          "internalType": "string",
          "name": "project",
          "type": "string"
        }
      ],
      "name": "deforestation_analysis",
      "outputs": [
        {
          "internalType": "bool",
          "name": "",
          "type": "bool"
        }
      ],
      "stateMutability": "nonpayable",
      "type": "function"
    },
    {
      "inputs": [],
      "name": "name",
      "outputs": [
        {
          "internalType": "string",
          "name": "",
          "type": "string"
        }
      ],
      "stateMutability": "view",
      "type": "function"
    },
    {
      "inputs": [
        {
          "internalType": "uint256",
          "name": "numberOfTokens",
          "type": "uint256"
        }
      ],
      "name": "sellTokens",
      "outputs": [],
      "stateMutability": "nonpayable",
      "type": "function"
    },
    {
      "inputs": [],
      "name": "symbol",
      "outputs": [
        {
          "internalType": "string",
          "name": "",
          "type": "string"
        }
      ],
      "stateMutability": "view",
      "type": "function"
    },
    {
      "inputs": [
        {
          "internalType": "address",
          "name": "",
          "type": "address"
        }
      ],
      "name": "tokenBalance",
      "outputs": [
        {
          "internalType": "uint256",
          "name": "",
          "type": "uint256"
        }
      ],
      "stateMutability": "view",
      "type": "function"
    },
    {
      "inputs": [],
      "name": "tokenPrice",
      "outputs": [
        {
          "internalType": "uint256",
          "name": "",
          "type": "uint256"
        }
      ],
      "stateMutability": "view",
      "type": "function"
    },
    {
      "inputs": [],
      "name": "totalSupply",
      "outputs": [
        {
          "internalType": "uint256",
          "name": "",
          "type": "uint256"
        }
      ],
      "stateMutability": "view",
      "type": "function"
    },
    {
      "inputs": [
        {
          "internalType": "address",
          "name": "to",
          "type": "address"
        },
        {
          "internalType": "uint256",
          "name": "value",
          "type": "uint256"
        },
        {
          "internalType": "string",
          "name": "cid",
          "type": "string"
        }
      ],
      "name": "transfer",
      "outputs": [
        {
          "internalType": "bool",
          "name": "",
          "type": "bool"
        }
      ],
      "stateMutability": "nonpayable",
      "type": "function"
    },
    {
      "inputs": [
        {
          "internalType": "address",
          "name": "from",
          "type": "address"
        },
        {
          "internalType": "address",
          "name": "to",
          "type": "address"
        },
        {
          "internalType": "uint256",
          "name": "value",
          "type": "uint256"
        }
      ],
      "name": "transferFrom",
      "outputs": [
        {
          "internalType": "bool",
          "name": "",
          "type": "bool"
        }
      ],
      "stateMutability": "nonpayable",
      "type": "function"
    }
  ],
  "bytecode": "0x60806040523480156200001157600080fd5b50604051620028ee380380620028ee8339818101604052810190620000379190620002fe565b846004908162000048919062000605565b5083600590816200005a919062000605565b5082600660006101000a81548160ff021916908360ff1602179055508260ff16600a6200008891906200086f565b82620000959190620008c0565b600381905550806007819055506003546000803373ffffffffffffffffffffffffffffffffffffffff1673ffffffffffffffffffffffffffffffffffffffff1681526020019081526020016000208190555050505050506200090b565b6000604051905090565b600080fd5b600080fd5b600080fd5b600080fd5b6000601f19601f8301169050919050565b7f4e487b7100000000000000000000000000000000000000000000000000000000600052604160045260246000fd5b6200015b8262000110565b810181811067ffffffffffffffff821117156200017d576200017c62000121565b5b80604052505050565b600062000192620000f2565b9050620001a0828262000150565b919050565b600067ffffffffffffffff821115620001c357620001c262000121565b5b620001ce8262000110565b9050602081019050919050565b60005b83811015620001fb578082015181840152602081019050620001de565b60008484015250505050565b60006200021e6200021884620001a5565b62000186565b9050828152602081018484840111156200023d576200023c6200010b565b5b6200024a848285620001db565b509392505050565b600082601f8301126200026a576200026962000106565b5b81516200027c84826020860162000207565b91505092915050565b600060ff82169050919050565b6200029d8162000285565b8114620002a957600080fd5b50565b600081519050620002bd8162000292565b92915050565b6000819050919050565b620002d881620002c3565b8114620002e457600080fd5b50565b600081519050620002f881620002cd565b92915050565b600080600080600060a086880312156200031d576200031c620000fc565b5b600086015167ffffffffffffffff8111156200033e576200033d62000101565b5b6200034c8882890162000252565b955050602086015167ffffffffffffffff81111562000370576200036f62000101565b5b6200037e8882890162000252565b94505060406200039188828901620002ac565b9350506060620003a488828901620002e7565b9250506080620003b788828901620002e7565b9150509295509295909350565b600081519050919050565b7f4e487b7100000000000000000000000000000000000000000000000000000000600052602260045260246000fd5b600060028204905060018216806200041757607f821691505b6020821081036200042d576200042c620003cf565b5b50919050565b60008190508160005260206000209050919050565b60006020601f8301049050919050565b600082821b905092915050565b600060088302620004977fffffffffffffffffffffffffffffffffffffffffffffffffffffffffffffffff8262000458565b620004a3868362000458565b95508019841693508086168417925050509392505050565b6000819050919050565b6000620004e6620004e0620004da84620002c3565b620004bb565b620002c3565b9050919050565b6000819050919050565b6200050283620004c5565b6200051a6200051182620004ed565b84845462000465565b825550505050565b600090565b6200053162000522565b6200053e818484620004f7565b505050565b5b8181101562000566576200055a60008262000527565b60018101905062000544565b5050565b601f821115620005b5576200057f8162000433565b6200058a8462000448565b810160208510156200059a578190505b620005b2620005a98562000448565b83018262000543565b50505b505050565b600082821c905092915050565b6000620005da60001984600802620005ba565b1980831691505092915050565b6000620005f58383620005c7565b9150826002028217905092915050565b6200061082620003c4565b67ffffffffffffffff8111156200062c576200062b62000121565b5b620006388254620003fe565b620006458282856200056a565b600060209050601f8311600181146200067d576000841562000668578287015190505b620006748582620005e7565b865550620006e4565b601f1984166200068d8662000433565b60005b82811015620006b75784890151825560018201915060208501945060208101905062000690565b86831015620006d75784890151620006d3601f891682620005c7565b8355505b6001600288020188555050505b505050505050565b7f4e487b7100000000000000000000000000000000000000000000000000000000600052601160045260246000fd5b60008160011c9050919050565b6000808291508390505b60018511156200077a57808604811115620007525762000751620006ec565b5b6001851615620007625780820291505b808102905062000772856200071b565b945062000732565b94509492505050565b60008262000795576001905062000868565b81620007a5576000905062000868565b8160018114620007be5760028114620007c957620007ff565b600191505062000868565b60ff841115620007de57620007dd620006ec565b5b8360020a915084821115620007f857620007f7620006ec565b5b5062000868565b5060208310610133831016604e8410600b8410161715620008395782820a905083811115620008335762000832620006ec565b5b62000868565b62000848848484600162000728565b92509050818404811115620008625762000861620006ec565b5b81810290505b9392505050565b60006200087c82620002c3565b91506200088983620002c3565b9250620008b87fffffffffffffffffffffffffffffffffffffffffffffffffffffffffffffffff848462000783565b905092915050565b6000620008cd82620002c3565b9150620008da83620002c3565b9250828202620008ea81620002c3565b91508282048414831517620009045762000903620006ec565b5b5092915050565b611fd3806200091b6000396000f3fe6080604052600436106100fe5760003560e01c80636c11bcd311610095578063946031f211610064578063946031f21461036257806395d89b411461039f578063b6133217146103ca578063dd62ed3e146103f3578063eedc966a14610430576100fe565b80636c11bcd31461029457806370a08231146102bd5780637ff9b596146102fa57806388e8a42214610325576100fe565b80632670e79d116100d15780632670e79d146101d3578063313ce567146102105780633610724e1461023b57806356b8c72414610257576100fe565b806306fdde0314610103578063095ea7b31461012e57806318160ddd1461016b57806323b872dd14610196575b600080fd5b34801561010f57600080fd5b5061011861046d565b6040516101259190611550565b60405180910390f35b34801561013a57600080fd5b506101556004803603810190610150919061161a565b6104fb565b6040516101629190611675565b60405180910390f35b34801561017757600080fd5b5061018061065d565b60405161018d919061169f565b60405180910390f35b3480156101a257600080fd5b506101bd60048036038101906101b891906116ba565b610663565b6040516101ca9190611675565b60405180910390f35b3480156101df57600080fd5b506101fa60048036038101906101f5919061170d565b610a72565b604051610207919061169f565b60405180910390f35b34801561021c57600080fd5b50610225610a8a565b6040516102329190611756565b60405180910390f35b61025560048036038101906102509190611771565b610a9d565b005b34801561026357600080fd5b5061027e600480360381019061027991906118d3565b610cb3565b60405161028b9190611675565b60405180910390f35b3480156102a057600080fd5b506102bb60048036038101906102b69190611771565b610f3a565b005b3480156102c957600080fd5b506102e460048036038101906102df919061170d565b611155565b6040516102f1919061169f565b60405180910390f35b34801561030657600080fd5b5061030f61119d565b60405161031c919061169f565b60405180910390f35b34801561033157600080fd5b5061034c6004803603810190610347919061170d565b6111a3565b604051610359919061169f565b60405180910390f35b34801561036e57600080fd5b5061038960048036038101906103849190611942565b6111ec565b6040516103969190611675565b60405180910390f35b3480156103ab57600080fd5b506103b4611233565b6040516103c19190611550565b60405180910390f35b3480156103d657600080fd5b506103f160048036038101906103ec9190611771565b6112c1565b005b3480156103ff57600080fd5b5061041a600480360381019061041591906119ba565b611483565b604051610427919061169f565b60405180910390f35b34801561043c57600080fd5b506104576004803603810190610452919061170d565b6114a8565b604051610464919061169f565b60405180910390f35b6004805461047a90611a29565b80601f01602080910402602001604051908101604052809291908181526020018280546104a690611a29565b80156104f35780601f106104c8576101008083540402835291602001916104f3565b820191906000526020600020905b8154815290600101906020018083116104d657829003601f168201915b505050505081565b60008073ffffffffffffffffffffffffffffffffffffffff168373ffffffffffffffffffffffffffffffffffffffff160361056b576040517f08c379a000000000000000000000000000000000000000000000000000000000815260040161056290611aa6565b60405180910390fd5b81600160003373ffffffffffffffffffffffffffffffffffffffff1673ffffffffffffffffffffffffffffffffffffffff16815260200190815260200160002060008573ffffffffffffffffffffffffffffffffffffffff1673ffffffffffffffffffffffffffffffffffffffff168152602001908152602001600020819055508273ffffffffffffffffffffffffffffffffffffffff163373ffffffffffffffffffffffffffffffffffffffff167fb3fd5071835887567a0671151121894ddccc2842f1d10bedad13e0d17cace9a7844260405161064b929190611ac6565b60405180910390a36001905092915050565b60035481565b60008073ffffffffffffffffffffffffffffffffffffffff168473ffffffffffffffffffffffffffffffffffffffff16036106d3576040517f08c379a00000000000000000000000000000000000000000000000000000000081526004016106ca90611b3b565b60405180910390fd5b600073ffffffffffffffffffffffffffffffffffffffff168373ffffffffffffffffffffffffffffffffffffffff1603610742576040517f08c379a000000000000000000000000000000000000000000000000000000000815260040161073990611ba7565b60405180910390fd5b60008211610785576040517f08c379a000000000000000000000000000000000000000000000000000000000815260040161077c90611c13565b60405180910390fd5b816000808673ffffffffffffffffffffffffffffffffffffffff1673ffffffffffffffffffffffffffffffffffffffff168152602001908152602001600020541015610806576040517f08c379a00000000000000000000000000000000000000000000000000000000081526004016107fd90611c7f565b60405180910390fd5b81600160008673ffffffffffffffffffffffffffffffffffffffff1673ffffffffffffffffffffffffffffffffffffffff16815260200190815260200160002060003373ffffffffffffffffffffffffffffffffffffffff1673ffffffffffffffffffffffffffffffffffffffff1681526020019081526020016000205410156108c5576040517f08c379a00000000000000000000000000000000000000000000000000000000081526004016108bc90611ceb565b60405180910390fd5b816000808673ffffffffffffffffffffffffffffffffffffffff1673ffffffffffffffffffffffffffffffffffffffff16815260200190815260200160002060008282546109139190611d3a565b92505081905550816000808573ffffffffffffffffffffffffffffffffffffffff1673ffffffffffffffffffffffffffffffffffffffff16815260200190815260200160002060008282546109689190611d6e565b9250508190555081600160008673ffffffffffffffffffffffffffffffffffffffff1673ffffffffffffffffffffffffffffffffffffffff16815260200190815260200160002060003373ffffffffffffffffffffffffffffffffffffffff1673ffffffffffffffffffffffffffffffffffffffff16815260200190815260200160002060008282546109fb9190611d3a565b925050819055508273ffffffffffffffffffffffffffffffffffffffff168473ffffffffffffffffffffffffffffffffffffffff167fddf252ad1be2c89b69c2b068fc378daa952ba7f163c4a11628f55a4df523b3ef84604051610a5f919061169f565b60405180910390a3600190509392505050565b60026020528060005260406000206000915090505481565b600660009054906101000a900460ff1681565b60075481610aab9190611da2565b3414610aec576040517f08c379a0000000000000000000000000000000000000000000000000000000008152600401610ae390611e30565b60405180910390fd5b60008111610b2f576040517f08c379a0000000000000000000000000000000000000000000000000000000008152600401610b2690611c13565b60405180910390fd5b6000819050806000803073ffffffffffffffffffffffffffffffffffffffff1673ffffffffffffffffffffffffffffffffffffffff168152602001908152602001600020541015610bb5576040517f08c379a0000000000000000000000000000000000000000000000000000000008152600401610bac90611e9c565b60405180910390fd5b806000803073ffffffffffffffffffffffffffffffffffffffff1673ffffffffffffffffffffffffffffffffffffffff1681526020019081526020016000206000828254610c039190611d3a565b92505081905550806000803373ffffffffffffffffffffffffffffffffffffffff1673ffffffffffffffffffffffffffffffffffffffff1681526020019081526020016000206000828254610c589190611d6e565b925050819055503373ffffffffffffffffffffffffffffffffffffffff167f8fafebcaf9d154343dad25669bfa277f4fbacd7ac6b0c4fed522580e040a0f338242604051610ca7929190611ac6565b60405180910390a25050565b60008073ffffffffffffffffffffffffffffffffffffffff168473ffffffffffffffffffffffffffffffffffffffff1603610d23576040517f08c379a0000000000000000000000000000000000000000000000000000000008152600401610d1a90611ba7565b60405180910390fd5b60008311610d66576040517f08c379a0000000000000000000000000000000000000000000000000000000008152600401610d5d90611c13565b60405180910390fd5b826000803373ffffffffffffffffffffffffffffffffffffffff1673ffffffffffffffffffffffffffffffffffffffff168152602001908152602001600020541015610de7576040517f08c379a0000000000000000000000000000000000000000000000000000000008152600401610dde90611c7f565b60405180910390fd5b826000803373ffffffffffffffffffffffffffffffffffffffff1673ffffffffffffffffffffffffffffffffffffffff1681526020019081526020016000206000828254610e359190611d3a565b92505081905550826000808673ffffffffffffffffffffffffffffffffffffffff1673ffffffffffffffffffffffffffffffffffffffff1681526020019081526020016000206000828254610e8a9190611d6e565b925050819055508373ffffffffffffffffffffffffffffffffffffffff163373ffffffffffffffffffffffffffffffffffffffff167fddf252ad1be2c89b69c2b068fc378daa952ba7f163c4a11628f55a4df523b3ef85604051610eee919061169f565b60405180910390a37fcd69de95a5798cf1800d1695d9168cf2bf443e2ec1c250b97e8555114c5c3aa88242604051610f27929190611ebc565b60405180910390a1600190509392505050565b60008111610f7d576040517f08c379a0000000000000000000000000000000000000000000000000000000008152600401610f7490611c13565b60405180910390fd5b806000803373ffffffffffffffffffffffffffffffffffffffff1673ffffffffffffffffffffffffffffffffffffffff168152602001908152602001600020541015610ffe576040517f08c379a0000000000000000000000000000000000000000000000000000000008152600401610ff590611c7f565b60405180910390fd5b6000819050806000803373ffffffffffffffffffffffffffffffffffffffff1673ffffffffffffffffffffffffffffffffffffffff16815260200190815260200160002060008282546110519190611d3a565b92505081905550806000803073ffffffffffffffffffffffffffffffffffffffff1673ffffffffffffffffffffffffffffffffffffffff16815260200190815260200160002060008282546110a69190611d6e565b925050819055503373ffffffffffffffffffffffffffffffffffffffff166108fc600754846110d59190611da2565b9081150290604051600060405180830381858888f19350505050158015611100573d6000803e3d6000fd5b503373ffffffffffffffffffffffffffffffffffffffff167f2dcf9433d75db0d8b1c172641f85e319ffe4ad22e108a95d1847ceb906e5195d8242604051611149929190611ac6565b60405180910390a25050565b60008060008373ffffffffffffffffffffffffffffffffffffffff1673ffffffffffffffffffffffffffffffffffffffff168152602001908152602001600020549050919050565b60075481565b6000600260008373ffffffffffffffffffffffffffffffffffffffff1673ffffffffffffffffffffffffffffffffffffffff168152602001908152602001600020549050919050565b60007f1d04bd74740428b3d266463bc6c0a988afb9e269efe341db2c1618b9a6e651a783834260405161122193929190611eec565b60405180910390a16001905092915050565b6005805461124090611a29565b80601f016020809104026020016040519081016040528092919081815260200182805461126c90611a29565b80156112b95780601f1061128e576101008083540402835291602001916112b9565b820191906000526020600020905b81548152906001019060200180831161129c57829003601f168201915b505050505081565b60008111611304576040517f08c379a00000000000000000000000000000000000000000000000000000000081526004016112fb90611f7d565b60405180910390fd5b806000803373ffffffffffffffffffffffffffffffffffffffff1673ffffffffffffffffffffffffffffffffffffffff168152602001908152602001600020541015611385576040517f08c379a000000000000000000000000000000000000000000000000000000000815260040161137c90611c7f565b60405180910390fd5b806000803373ffffffffffffffffffffffffffffffffffffffff1673ffffffffffffffffffffffffffffffffffffffff16815260200190815260200160002060008282546113d39190611d3a565b9250508190555080600260003373ffffffffffffffffffffffffffffffffffffffff1673ffffffffffffffffffffffffffffffffffffffff16815260200190815260200160002060008282546114299190611d6e565b925050819055503373ffffffffffffffffffffffffffffffffffffffff167f90c178c5507e8ab3ef453a02d282f378580f63d44096203c0d34f4378f1075838242604051611478929190611ac6565b60405180910390a250565b6001602052816000526040600020602052806000526040600020600091509150505481565b60006020528060005260406000206000915090505481565b600081519050919050565b600082825260208201905092915050565b60005b838110156114fa5780820151818401526020810190506114df565b60008484015250505050565b6000601f19601f8301169050919050565b6000611522826114c0565b61152c81856114cb565b935061153c8185602086016114dc565b61154581611506565b840191505092915050565b6000602082019050818103600083015261156a8184611517565b905092915050565b6000604051905090565b600080fd5b600080fd5b600073ffffffffffffffffffffffffffffffffffffffff82169050919050565b60006115b182611586565b9050919050565b6115c1816115a6565b81146115cc57600080fd5b50565b6000813590506115de816115b8565b92915050565b6000819050919050565b6115f7816115e4565b811461160257600080fd5b50565b600081359050611614816115ee565b92915050565b600080604083850312156116315761163061157c565b5b600061163f858286016115cf565b925050602061165085828601611605565b9150509250929050565b60008115159050919050565b61166f8161165a565b82525050565b600060208201905061168a6000830184611666565b92915050565b611699816115e4565b82525050565b60006020820190506116b46000830184611690565b92915050565b6000806000606084860312156116d3576116d261157c565b5b60006116e1868287016115cf565b93505060206116f2868287016115cf565b925050604061170386828701611605565b9150509250925092565b6000602082840312156117235761172261157c565b5b6000611731848285016115cf565b91505092915050565b600060ff82169050919050565b6117508161173a565b82525050565b600060208201905061176b6000830184611747565b92915050565b6000602082840312156117875761178661157c565b5b600061179584828501611605565b91505092915050565b600080fd5b600080fd5b7f4e487b7100000000000000000000000000000000000000000000000000000000600052604160045260246000fd5b6117e082611506565b810181811067ffffffffffffffff821117156117ff576117fe6117a8565b5b80604052505050565b6000611812611572565b905061181e82826117d7565b919050565b600067ffffffffffffffff82111561183e5761183d6117a8565b5b61184782611506565b9050602081019050919050565b82818337600083830152505050565b600061187661187184611823565b611808565b905082815260208101848484011115611892576118916117a3565b5b61189d848285611854565b509392505050565b600082601f8301126118ba576118b961179e565b5b81356118ca848260208601611863565b91505092915050565b6000806000606084860312156118ec576118eb61157c565b5b60006118fa868287016115cf565b935050602061190b86828701611605565b925050604084013567ffffffffffffffff81111561192c5761192b611581565b5b611938868287016118a5565b9150509250925092565b600080604083850312156119595761195861157c565b5b600083013567ffffffffffffffff81111561197757611976611581565b5b611983858286016118a5565b925050602083013567ffffffffffffffff8111156119a4576119a3611581565b5b6119b0858286016118a5565b9150509250929050565b600080604083850312156119d1576119d061157c565b5b60006119df858286016115cf565b92505060206119f0858286016115cf565b9150509250929050565b7f4e487b7100000000000000000000000000000000000000000000000000000000600052602260045260246000fd5b60006002820490506001821680611a4157607f821691505b602082108103611a5457611a536119fa565b5b50919050565b7f496e76616c6964207370656e6465722061646472657373000000000000000000600082015250565b6000611a906017836114cb565b9150611a9b82611a5a565b602082019050919050565b60006020820190508181036000830152611abf81611a83565b9050919050565b6000604082019050611adb6000830185611690565b611ae86020830184611690565b9392505050565b7f496e76616c69642073656e646572206164647265737300000000000000000000600082015250565b6000611b256016836114cb565b9150611b3082611aef565b602082019050919050565b60006020820190508181036000830152611b5481611b18565b9050919050565b7f496e76616c696420726563697069656e74206164647265737300000000000000600082015250565b6000611b916019836114cb565b9150611b9c82611b5b565b602082019050919050565b60006020820190508181036000830152611bc081611b84565b9050919050565b7f496e76616c696420746f6b656e20616d6f756e74000000000000000000000000600082015250565b6000611bfd6014836114cb565b9150611c0882611bc7565b602082019050919050565b60006020820190508181036000830152611c2c81611bf0565b9050919050565b7f496e73756666696369656e742062616c616e6365000000000000000000000000600082015250565b6000611c696014836114cb565b9150611c7482611c33565b602082019050919050565b60006020820190508181036000830152611c9881611c5c565b9050919050565b7f496e73756666696369656e7420616c6c6f77616e636500000000000000000000600082015250565b6000611cd56016836114cb565b9150611ce082611c9f565b602082019050919050565b60006020820190508181036000830152611d0481611cc8565b9050919050565b7f4e487b7100000000000000000000000000000000000000000000000000000000600052601160045260246000fd5b6000611d45826115e4565b9150611d50836115e4565b9250828203905081811115611d6857611d67611d0b565b5b92915050565b6000611d79826115e4565b9150611d84836115e4565b9250828201905080821115611d9c57611d9b611d0b565b5b92915050565b6000611dad826115e4565b9150611db8836115e4565b9250828202611dc6816115e4565b91508282048414831517611ddd57611ddc611d0b565b5b5092915050565b7f496e636f727265637420616d6f756e74206f662045746865722073656e740000600082015250565b6000611e1a601e836114cb565b9150611e2582611de4565b602082019050919050565b60006020820190508181036000830152611e4981611e0d565b9050919050565b7f496e73756666696369656e7420746f6b656e2062616c616e6365000000000000600082015250565b6000611e86601a836114cb565b9150611e9182611e50565b602082019050919050565b60006020820190508181036000830152611eb581611e79565b9050919050565b60006040820190508181036000830152611ed68185611517565b9050611ee56020830184611690565b9392505050565b60006060820190508181036000830152611f068186611517565b90508181036020830152611f1a8185611517565b9050611f296040830184611690565b949350505050565b7f496e76616c696420636172626f6e206f666673657420616d6f756e7400000000600082015250565b6000611f67601c836114cb565b9150611f7282611f31565b602082019050919050565b60006020820190508181036000830152611f9681611f5a565b905091905056fea2646970667358221220674012a3876ee1fe2e73d93eb482afca4afa2aca970f1e2d0eef75151f4c8aa864736f6c63430008130033",
  "linkReferences": {},
  "deployedLinkReferences": {}
}