{
  "_format": "hh-sol-artifact-1",
  "contractName": "CarbonChain",
  "sourceName": "contracts/amazoncoin.sol",
  "abi": [
    {
      "inputs": [
        {
          "internalType": "string",
          "name": "tokenName",
          "type": "string"
        },
        {
          "internalType": "string",
          "name": "tokenSymbol",
          "type": "string"
        },
        {
          "internalType": "uint8",
          "name": "decimalUnits",
          "type": "uint8"
        },
        {
          "internalType": "uint256",
          "name": "initialSupply",
          "type": "uint256"
        },
        {
          "internalType": "uint256",
          "name": "pricePerToken",
          "type": "uint256"
        }
      ],
      "stateMutability": "nonpayable",
      "type": "constructor"
    },
    {
      "anonymous": false,
      "inputs": [
        {
          "indexed": true,
          "internalType": "address",
          "name": "owner",
          "type": "address"
        },
        {
          "indexed": true,
          "internalType": "address",
          "name": "spender",
          "type": "address"
        },
        {
          "indexed": false,
          "internalType": "uint256",
          "name": "value",
          "type": "uint256"
        },
        {
          "indexed": false,
          "internalType": "uint256",
          "name": "timestamp",
          "type": "uint256"
        }
      ],
      "name": "Approval",
      "type": "event"
    },
    {
      "anonymous": false,
      "inputs": [
        {
          "indexed": false,
          "internalType": "string",
          "name": "cid",
          "type": "string"
        },
        {
          "indexed": false,
          "internalType": "uint256",
          "name": "timestamp",
          "type": "uint256"
        }
      ],
      "name": "CID",
      "type": "event"
    },
    {
      "anonymous": false,
      "inputs": [
        {
          "indexed": true,
          "internalType": "address",
          "name": "account",
          "type": "address"
        },
        {
          "indexed": false,
          "internalType": "uint256",
          "name": "amount",
          "type": "uint256"
        },
        {
          "indexed": false,
          "internalType": "uint256",
          "name": "timestamp",
          "type": "uint256"
        }
      ],
      "name": "CarbonOffsetsClaimed",
      "type": "event"
    },
    {
      "anonymous": false,
      "inputs": [
        {
          "indexed": true,
          "internalType": "address",
          "name": "buyer",
          "type": "address"
        },
        {
          "indexed": false,
          "internalType": "uint256",
          "name": "amount",
          "type": "uint256"
        },
        {
          "indexed": false,
          "internalType": "uint256",
          "name": "timestamp",
          "type": "uint256"
        }
      ],
      "name": "TokensPurchased",
      "type": "event"
    },
    {
      "anonymous": false,
      "inputs": [
        {
          "indexed": true,
          "internalType": "address",
          "name": "seller",
          "type": "address"
        },
        {
          "indexed": false,
          "internalType": "uint256",
          "name": "amount",
          "type": "uint256"
        },
        {
          "indexed": false,
          "internalType": "uint256",
          "name": "timestamp",
          "type": "uint256"
        }
      ],
      "name": "TokensSold",
      "type": "event"
    },
    {
      "anonymous": false,
      "inputs": [
        {
          "indexed": true,
          "internalType": "address",
          "name": "from",
          "type": "address"
        },
        {
          "indexed": true,
          "internalType": "address",
          "name": "to",
          "type": "address"
        },
        {
          "indexed": false,
          "internalType": "uint256",
          "name": "value",
          "type": "uint256"
        }
      ],
      "name": "Transfer",
      "type": "event"
    },
    {
      "inputs": [
        {
          "internalType": "address",
          "name": "",
          "type": "address"
        },
        {
          "internalType": "address",
          "name": "",
          "type": "address"
        }
      ],
      "name": "allowance",
      "outputs": [
        {
          "internalType": "uint256",
          "name": "",
          "type": "uint256"
        }
      ],
      "stateMutability": "view",
      "type": "function"
    },
    {
      "inputs": [
        {
          "internalType": "address",
          "name": "spender",
          "type": "address"
        },
        {
          "internalType": "uint256",
          "name": "value",
          "type": "uint256"
        }
      ],
      "name": "approve",
      "outputs": [
        {
          "internalType": "bool",
          "name": "",
          "type": "bool"
        }
      ],
      "stateMutability": "nonpayable",
      "type": "function"
    },
    {
      "inputs": [
        {
          "internalType": "address",
          "name": "account",
          "type": "address"
        }
      ],
      "name": "balanceOf",
      "outputs": [
        {
          "internalType": "uint256",
          "name": "",
          "type": "uint256"
        }
      ],
      "stateMutability": "view",
      "type": "function"
    },
    {
      "inputs": [
        {
          "internalType": "uint256",
          "name": "numberOfTokens",
          "type": "uint256"
        }
      ],
      "name": "buyTokens",
      "outputs": [],
      "stateMutability": "payable",
      "type": "function"
    },
    {
      "inputs": [],
      "name": "carbonOffs",
      "outputs": [
        {
          "internalType": "uint256",
          "name": "",
          "type": "uint256"
        }
      ],
      "stateMutability": "view",
      "type": "function"
    },
    {
      "inputs": [
        {
          "internalType": "address",
          "name": "",
          "type": "address"
        }
      ],
      "name": "carbonOffsets",
      "outputs": [
        {
          "internalType": "uint256",
          "name": "",
          "type": "uint256"
        }
      ],
      "stateMutability": "view",
      "type": "function"
    },
    {
      "inputs": [
        {
          "internalType": "uint256",
          "name": "amount",
          "type": "uint256"
        }
      ],
      "name": "claimCarbonOffsets",
      "outputs": [],
      "stateMutability": "nonpayable",
      "type": "function"
    },
    {
      "inputs": [],
      "name": "decimals",
      "outputs": [
        {
          "internalType": "uint8",
          "name": "",
          "type": "uint8"
        }
      ],
      "stateMutability": "view",
      "type": "function"
    },
    {
      "inputs": [],
      "name": "name",
      "outputs": [
        {
          "internalType": "string",
          "name": "",
          "type": "string"
        }
      ],
      "stateMutability": "view",
      "type": "function"
    },
    {
      "inputs": [
        {
          "internalType": "uint256",
          "name": "numberOfTokens",
          "type": "uint256"
        }
      ],
      "name": "sellTokens",
      "outputs": [],
      "stateMutability": "nonpayable",
      "type": "function"
    },
    {
      "inputs": [],
      "name": "symbol",
      "outputs": [
        {
          "internalType": "string",
          "name": "",
          "type": "string"
        }
      ],
      "stateMutability": "view",
      "type": "function"
    },
    {
      "inputs": [
        {
          "internalType": "address",
          "name": "",
          "type": "address"
        }
      ],
      "name": "tokenBalance",
      "outputs": [
        {
          "internalType": "uint256",
          "name": "",
          "type": "uint256"
        }
      ],
      "stateMutability": "view",
      "type": "function"
    },
    {
      "inputs": [],
      "name": "tokenPrice",
      "outputs": [
        {
          "internalType": "uint256",
          "name": "",
          "type": "uint256"
        }
      ],
      "stateMutability": "view",
      "type": "function"
    },
    {
      "inputs": [],
      "name": "totalSupply",
      "outputs": [
        {
          "internalType": "uint256",
          "name": "",
          "type": "uint256"
        }
      ],
      "stateMutability": "view",
      "type": "function"
    },
    {
      "inputs": [
        {
          "internalType": "address",
          "name": "to",
          "type": "address"
        },
        {
          "internalType": "uint256",
          "name": "value",
          "type": "uint256"
        },
        {
          "internalType": "string",
          "name": "cid",
          "type": "string"
        }
      ],
      "name": "transfer",
      "outputs": [
        {
          "internalType": "bool",
          "name": "",
          "type": "bool"
        }
      ],
      "stateMutability": "nonpayable",
      "type": "function"
    },
    {
      "inputs": [
        {
          "internalType": "address",
          "name": "from",
          "type": "address"
        },
        {
          "internalType": "address",
          "name": "to",
          "type": "address"
        },
        {
          "internalType": "uint256",
          "name": "value",
          "type": "uint256"
        }
      ],
      "name": "transferFrom",
      "outputs": [
        {
          "internalType": "bool",
          "name": "",
          "type": "bool"
        }
      ],
      "stateMutability": "nonpayable",
      "type": "function"
    }
  ],
  "bytecode": "0x60806040523480156200001157600080fd5b506040516200295e3803806200295e8339818101604052810190620000379190620002fe565b846004908162000048919062000605565b5083600590816200005a919062000605565b5082600660006101000a81548160ff021916908360ff1602179055508260ff16600a6200008891906200086f565b82620000959190620008c0565b600381905550806007819055506003546000803373ffffffffffffffffffffffffffffffffffffffff1673ffffffffffffffffffffffffffffffffffffffff1681526020019081526020016000208190555050505050506200090b565b6000604051905090565b600080fd5b600080fd5b600080fd5b600080fd5b6000601f19601f8301169050919050565b7f4e487b7100000000000000000000000000000000000000000000000000000000600052604160045260246000fd5b6200015b8262000110565b810181811067ffffffffffffffff821117156200017d576200017c62000121565b5b80604052505050565b600062000192620000f2565b9050620001a0828262000150565b919050565b600067ffffffffffffffff821115620001c357620001c262000121565b5b620001ce8262000110565b9050602081019050919050565b60005b83811015620001fb578082015181840152602081019050620001de565b60008484015250505050565b60006200021e6200021884620001a5565b62000186565b9050828152602081018484840111156200023d576200023c6200010b565b5b6200024a848285620001db565b509392505050565b600082601f8301126200026a576200026962000106565b5b81516200027c84826020860162000207565b91505092915050565b600060ff82169050919050565b6200029d8162000285565b8114620002a957600080fd5b50565b600081519050620002bd8162000292565b92915050565b6000819050919050565b620002d881620002c3565b8114620002e457600080fd5b50565b600081519050620002f881620002cd565b92915050565b600080600080600060a086880312156200031d576200031c620000fc565b5b600086015167ffffffffffffffff8111156200033e576200033d62000101565b5b6200034c8882890162000252565b955050602086015167ffffffffffffffff81111562000370576200036f62000101565b5b6200037e8882890162000252565b94505060406200039188828901620002ac565b9350506060620003a488828901620002e7565b9250506080620003b788828901620002e7565b9150509295509295909350565b600081519050919050565b7f4e487b7100000000000000000000000000000000000000000000000000000000600052602260045260246000fd5b600060028204905060018216806200041757607f821691505b6020821081036200042d576200042c620003cf565b5b50919050565b60008190508160005260206000209050919050565b60006020601f8301049050919050565b600082821b905092915050565b600060088302620004977fffffffffffffffffffffffffffffffffffffffffffffffffffffffffffffffff8262000458565b620004a3868362000458565b95508019841693508086168417925050509392505050565b6000819050919050565b6000620004e6620004e0620004da84620002c3565b620004bb565b620002c3565b9050919050565b6000819050919050565b6200050283620004c5565b6200051a6200051182620004ed565b84845462000465565b825550505050565b600090565b6200053162000522565b6200053e818484620004f7565b505050565b5b8181101562000566576200055a60008262000527565b60018101905062000544565b5050565b601f821115620005b5576200057f8162000433565b6200058a8462000448565b810160208510156200059a578190505b620005b2620005a98562000448565b83018262000543565b50505b505050565b600082821c905092915050565b6000620005da60001984600802620005ba565b1980831691505092915050565b6000620005f58383620005c7565b9150826002028217905092915050565b6200061082620003c4565b67ffffffffffffffff8111156200062c576200062b62000121565b5b620006388254620003fe565b620006458282856200056a565b600060209050601f8311600181146200067d576000841562000668578287015190505b620006748582620005e7565b865550620006e4565b601f1984166200068d8662000433565b60005b82811015620006b75784890151825560018201915060208501945060208101905062000690565b86831015620006d75784890151620006d3601f891682620005c7565b8355505b6001600288020188555050505b505050505050565b7f4e487b7100000000000000000000000000000000000000000000000000000000600052601160045260246000fd5b60008160011c9050919050565b6000808291508390505b60018511156200077a57808604811115620007525762000751620006ec565b5b6001851615620007625780820291505b808102905062000772856200071b565b945062000732565b94509492505050565b60008262000795576001905062000868565b81620007a5576000905062000868565b8160018114620007be5760028114620007c957620007ff565b600191505062000868565b60ff841115620007de57620007dd620006ec565b5b8360020a915084821115620007f857620007f7620006ec565b5b5062000868565b5060208310610133831016604e8410600b8410161715620008395782820a905083811115620008335762000832620006ec565b5b62000868565b62000848848484600162000728565b92509050818404811115620008625762000861620006ec565b5b81810290505b9392505050565b60006200087c82620002c3565b91506200088983620002c3565b9250620008b87fffffffffffffffffffffffffffffffffffffffffffffffffffffffffffffffff848462000783565b905092915050565b6000620008cd82620002c3565b9150620008da83620002c3565b9250828202620008ea81620002c3565b91508282048414831517620009045762000903620006ec565b5b5092915050565b612043806200091b6000396000f3fe6080604052600436106100f35760003560e01c806356b8c7241161008a57806395d89b411161005957806395d89b4114610345578063b613321714610370578063dd62ed3e14610399578063eedc966a146103d6576100f3565b806356b8c724146102775780636c11bcd3146102b457806370a08231146102dd5780637ff9b5961461031a576100f3565b80632670e79d116100c65780632670e79d146101c8578063313ce567146102055780633610724e146102305780635502153a1461024c576100f3565b806306fdde03146100f8578063095ea7b31461012357806318160ddd1461016057806323b872dd1461018b575b600080fd5b34801561010457600080fd5b5061010d610413565b60405161011a91906114ff565b60405180910390f35b34801561012f57600080fd5b5061014a600480360381019061014591906115c9565b6104a1565b6040516101579190611624565b60405180910390f35b34801561016c57600080fd5b50610175610603565b604051610182919061164e565b60405180910390f35b34801561019757600080fd5b506101b260048036038101906101ad9190611669565b610609565b6040516101bf9190611624565b60405180910390f35b3480156101d457600080fd5b506101ef60048036038101906101ea91906116bc565b610a18565b6040516101fc919061164e565b60405180910390f35b34801561021157600080fd5b5061021a610a30565b6040516102279190611705565b60405180910390f35b61024a60048036038101906102459190611720565b610a43565b005b34801561025857600080fd5b50610261610c82565b60405161026e919061164e565b60405180910390f35b34801561028357600080fd5b5061029e60048036038101906102999190611882565b610cc9565b6040516102ab9190611624565b60405180910390f35b3480156102c057600080fd5b506102db60048036038101906102d69190611720565b610f50565b005b3480156102e957600080fd5b5061030460048036038101906102ff91906116bc565b611194565b604051610311919061164e565b60405180910390f35b34801561032657600080fd5b5061032f6111dc565b60405161033c919061164e565b60405180910390f35b34801561035157600080fd5b5061035a6111e2565b60405161036791906114ff565b60405180910390f35b34801561037c57600080fd5b5061039760048036038101906103929190611720565b611270565b005b3480156103a557600080fd5b506103c060048036038101906103bb91906118f1565b611432565b6040516103cd919061164e565b60405180910390f35b3480156103e257600080fd5b506103fd60048036038101906103f891906116bc565b611457565b60405161040a919061164e565b60405180910390f35b6004805461042090611960565b80601f016020809104026020016040519081016040528092919081815260200182805461044c90611960565b80156104995780601f1061046e57610100808354040283529160200191610499565b820191906000526020600020905b81548152906001019060200180831161047c57829003601f168201915b505050505081565b60008073ffffffffffffffffffffffffffffffffffffffff168373ffffffffffffffffffffffffffffffffffffffff1603610511576040517f08c379a0000000000000000000000000000000000000000000000000000000008152600401610508906119dd565b60405180910390fd5b81600160003373ffffffffffffffffffffffffffffffffffffffff1673ffffffffffffffffffffffffffffffffffffffff16815260200190815260200160002060008573ffffffffffffffffffffffffffffffffffffffff1673ffffffffffffffffffffffffffffffffffffffff168152602001908152602001600020819055508273ffffffffffffffffffffffffffffffffffffffff163373ffffffffffffffffffffffffffffffffffffffff167fb3fd5071835887567a0671151121894ddccc2842f1d10bedad13e0d17cace9a784426040516105f19291906119fd565b60405180910390a36001905092915050565b60035481565b60008073ffffffffffffffffffffffffffffffffffffffff168473ffffffffffffffffffffffffffffffffffffffff1603610679576040517f08c379a000000000000000000000000000000000000000000000000000000000815260040161067090611a72565b60405180910390fd5b600073ffffffffffffffffffffffffffffffffffffffff168373ffffffffffffffffffffffffffffffffffffffff16036106e8576040517f08c379a00000000000000000000000000000000000000000000000000000000081526004016106df90611ade565b60405180910390fd5b6000821161072b576040517f08c379a000000000000000000000000000000000000000000000000000000000815260040161072290611b4a565b60405180910390fd5b816000808673ffffffffffffffffffffffffffffffffffffffff1673ffffffffffffffffffffffffffffffffffffffff1681526020019081526020016000205410156107ac576040517f08c379a00000000000000000000000000000000000000000000000000000000081526004016107a390611bb6565b60405180910390fd5b81600160008673ffffffffffffffffffffffffffffffffffffffff1673ffffffffffffffffffffffffffffffffffffffff16815260200190815260200160002060003373ffffffffffffffffffffffffffffffffffffffff1673ffffffffffffffffffffffffffffffffffffffff16815260200190815260200160002054101561086b576040517f08c379a000000000000000000000000000000000000000000000000000000000815260040161086290611c22565b60405180910390fd5b816000808673ffffffffffffffffffffffffffffffffffffffff1673ffffffffffffffffffffffffffffffffffffffff16815260200190815260200160002060008282546108b99190611c71565b92505081905550816000808573ffffffffffffffffffffffffffffffffffffffff1673ffffffffffffffffffffffffffffffffffffffff168152602001908152602001600020600082825461090e9190611ca5565b9250508190555081600160008673ffffffffffffffffffffffffffffffffffffffff1673ffffffffffffffffffffffffffffffffffffffff16815260200190815260200160002060003373ffffffffffffffffffffffffffffffffffffffff1673ffffffffffffffffffffffffffffffffffffffff16815260200190815260200160002060008282546109a19190611c71565b925050819055508273ffffffffffffffffffffffffffffffffffffffff168473ffffffffffffffffffffffffffffffffffffffff167fddf252ad1be2c89b69c2b068fc378daa952ba7f163c4a11628f55a4df523b3ef84604051610a05919061164e565b60405180910390a3600190509392505050565b60026020528060005260406000206000915090505481565b600660009054906101000a900460ff1681565b60075481610a519190611cd9565b3414610a92576040517f08c379a0000000000000000000000000000000000000000000000000000000008152600401610a8990611d67565b60405180910390fd5b60008111610ad5576040517f08c379a0000000000000000000000000000000000000000000000000000000008152600401610acc90611b4a565b60405180910390fd5b6000600660009054906101000a900460ff1660ff16600a610af69190611eba565b82610b019190611cd9565b9050806000803073ffffffffffffffffffffffffffffffffffffffff1673ffffffffffffffffffffffffffffffffffffffff168152602001908152602001600020541015610b84576040517f08c379a0000000000000000000000000000000000000000000000000000000008152600401610b7b90611f51565b60405180910390fd5b806000803073ffffffffffffffffffffffffffffffffffffffff1673ffffffffffffffffffffffffffffffffffffffff1681526020019081526020016000206000828254610bd29190611c71565b92505081905550806000803373ffffffffffffffffffffffffffffffffffffffff1673ffffffffffffffffffffffffffffffffffffffff1681526020019081526020016000206000828254610c279190611ca5565b925050819055503373ffffffffffffffffffffffffffffffffffffffff167f8fafebcaf9d154343dad25669bfa277f4fbacd7ac6b0c4fed522580e040a0f338242604051610c769291906119fd565b60405180910390a25050565b6000600260003373ffffffffffffffffffffffffffffffffffffffff1673ffffffffffffffffffffffffffffffffffffffff16815260200190815260200160002054905090565b60008073ffffffffffffffffffffffffffffffffffffffff168473ffffffffffffffffffffffffffffffffffffffff1603610d39576040517f08c379a0000000000000000000000000000000000000000000000000000000008152600401610d3090611ade565b60405180910390fd5b60008311610d7c576040517f08c379a0000000000000000000000000000000000000000000000000000000008152600401610d7390611b4a565b60405180910390fd5b826000803373ffffffffffffffffffffffffffffffffffffffff1673ffffffffffffffffffffffffffffffffffffffff168152602001908152602001600020541015610dfd576040517f08c379a0000000000000000000000000000000000000000000000000000000008152600401610df490611bb6565b60405180910390fd5b826000803373ffffffffffffffffffffffffffffffffffffffff1673ffffffffffffffffffffffffffffffffffffffff1681526020019081526020016000206000828254610e4b9190611c71565b92505081905550826000808673ffffffffffffffffffffffffffffffffffffffff1673ffffffffffffffffffffffffffffffffffffffff1681526020019081526020016000206000828254610ea09190611ca5565b925050819055508373ffffffffffffffffffffffffffffffffffffffff163373ffffffffffffffffffffffffffffffffffffffff167fddf252ad1be2c89b69c2b068fc378daa952ba7f163c4a11628f55a4df523b3ef85604051610f04919061164e565b60405180910390a37fcd69de95a5798cf1800d1695d9168cf2bf443e2ec1c250b97e8555114c5c3aa88242604051610f3d929190611f71565b60405180910390a1600190509392505050565b60008111610f93576040517f08c379a0000000000000000000000000000000000000000000000000000000008152600401610f8a90611b4a565b60405180910390fd5b806000803373ffffffffffffffffffffffffffffffffffffffff1673ffffffffffffffffffffffffffffffffffffffff168152602001908152602001600020541015611014576040517f08c379a000000000000000000000000000000000000000000000000000000000815260040161100b90611bb6565b60405180910390fd5b6000600660009054906101000a900460ff1660ff16600a6110359190611eba565b826110409190611cd9565b9050806000803373ffffffffffffffffffffffffffffffffffffffff1673ffffffffffffffffffffffffffffffffffffffff16815260200190815260200160002060008282546110909190611c71565b92505081905550806000803073ffffffffffffffffffffffffffffffffffffffff1673ffffffffffffffffffffffffffffffffffffffff16815260200190815260200160002060008282546110e59190611ca5565b925050819055503373ffffffffffffffffffffffffffffffffffffffff166108fc600754846111149190611cd9565b9081150290604051600060405180830381858888f1935050505015801561113f573d6000803e3d6000fd5b503373ffffffffffffffffffffffffffffffffffffffff167f2dcf9433d75db0d8b1c172641f85e319ffe4ad22e108a95d1847ceb906e5195d82426040516111889291906119fd565b60405180910390a25050565b60008060008373ffffffffffffffffffffffffffffffffffffffff1673ffffffffffffffffffffffffffffffffffffffff168152602001908152602001600020549050919050565b60075481565b600580546111ef90611960565b80601f016020809104026020016040519081016040528092919081815260200182805461121b90611960565b80156112685780601f1061123d57610100808354040283529160200191611268565b820191906000526020600020905b81548152906001019060200180831161124b57829003601f168201915b505050505081565b600081116112b3576040517f08c379a00000000000000000000000000000000000000000000000000000000081526004016112aa90611fed565b60405180910390fd5b806000803373ffffffffffffffffffffffffffffffffffffffff1673ffffffffffffffffffffffffffffffffffffffff168152602001908152602001600020541015611334576040517f08c379a000000000000000000000000000000000000000000000000000000000815260040161132b90611bb6565b60405180910390fd5b806000803373ffffffffffffffffffffffffffffffffffffffff1673ffffffffffffffffffffffffffffffffffffffff16815260200190815260200160002060008282546113829190611c71565b9250508190555080600260003373ffffffffffffffffffffffffffffffffffffffff1673ffffffffffffffffffffffffffffffffffffffff16815260200190815260200160002060008282546113d89190611ca5565b925050819055503373ffffffffffffffffffffffffffffffffffffffff167f90c178c5507e8ab3ef453a02d282f378580f63d44096203c0d34f4378f10758382426040516114279291906119fd565b60405180910390a250565b6001602052816000526040600020602052806000526040600020600091509150505481565b60006020528060005260406000206000915090505481565b600081519050919050565b600082825260208201905092915050565b60005b838110156114a957808201518184015260208101905061148e565b60008484015250505050565b6000601f19601f8301169050919050565b60006114d18261146f565b6114db818561147a565b93506114eb81856020860161148b565b6114f4816114b5565b840191505092915050565b6000602082019050818103600083015261151981846114c6565b905092915050565b6000604051905090565b600080fd5b600080fd5b600073ffffffffffffffffffffffffffffffffffffffff82169050919050565b600061156082611535565b9050919050565b61157081611555565b811461157b57600080fd5b50565b60008135905061158d81611567565b92915050565b6000819050919050565b6115a681611593565b81146115b157600080fd5b50565b6000813590506115c38161159d565b92915050565b600080604083850312156115e0576115df61152b565b5b60006115ee8582860161157e565b92505060206115ff858286016115b4565b9150509250929050565b60008115159050919050565b61161e81611609565b82525050565b60006020820190506116396000830184611615565b92915050565b61164881611593565b82525050565b6000602082019050611663600083018461163f565b92915050565b6000806000606084860312156116825761168161152b565b5b60006116908682870161157e565b93505060206116a18682870161157e565b92505060406116b2868287016115b4565b9150509250925092565b6000602082840312156116d2576116d161152b565b5b60006116e08482850161157e565b91505092915050565b600060ff82169050919050565b6116ff816116e9565b82525050565b600060208201905061171a60008301846116f6565b92915050565b6000602082840312156117365761173561152b565b5b6000611744848285016115b4565b91505092915050565b600080fd5b600080fd5b7f4e487b7100000000000000000000000000000000000000000000000000000000600052604160045260246000fd5b61178f826114b5565b810181811067ffffffffffffffff821117156117ae576117ad611757565b5b80604052505050565b60006117c1611521565b90506117cd8282611786565b919050565b600067ffffffffffffffff8211156117ed576117ec611757565b5b6117f6826114b5565b9050602081019050919050565b82818337600083830152505050565b6000611825611820846117d2565b6117b7565b90508281526020810184848401111561184157611840611752565b5b61184c848285611803565b509392505050565b600082601f8301126118695761186861174d565b5b8135611879848260208601611812565b91505092915050565b60008060006060848603121561189b5761189a61152b565b5b60006118a98682870161157e565b93505060206118ba868287016115b4565b925050604084013567ffffffffffffffff8111156118db576118da611530565b5b6118e786828701611854565b9150509250925092565b600080604083850312156119085761190761152b565b5b60006119168582860161157e565b92505060206119278582860161157e565b9150509250929050565b7f4e487b7100000000000000000000000000000000000000000000000000000000600052602260045260246000fd5b6000600282049050600182168061197857607f821691505b60208210810361198b5761198a611931565b5b50919050565b7f496e76616c6964207370656e6465722061646472657373000000000000000000600082015250565b60006119c760178361147a565b91506119d282611991565b602082019050919050565b600060208201905081810360008301526119f6816119ba565b9050919050565b6000604082019050611a12600083018561163f565b611a1f602083018461163f565b9392505050565b7f496e76616c69642073656e646572206164647265737300000000000000000000600082015250565b6000611a5c60168361147a565b9150611a6782611a26565b602082019050919050565b60006020820190508181036000830152611a8b81611a4f565b9050919050565b7f496e76616c696420726563697069656e74206164647265737300000000000000600082015250565b6000611ac860198361147a565b9150611ad382611a92565b602082019050919050565b60006020820190508181036000830152611af781611abb565b9050919050565b7f496e76616c696420746f6b656e20616d6f756e74000000000000000000000000600082015250565b6000611b3460148361147a565b9150611b3f82611afe565b602082019050919050565b60006020820190508181036000830152611b6381611b27565b9050919050565b7f496e73756666696369656e742062616c616e6365000000000000000000000000600082015250565b6000611ba060148361147a565b9150611bab82611b6a565b602082019050919050565b60006020820190508181036000830152611bcf81611b93565b9050919050565b7f496e73756666696369656e7420616c6c6f77616e636500000000000000000000600082015250565b6000611c0c60168361147a565b9150611c1782611bd6565b602082019050919050565b60006020820190508181036000830152611c3b81611bff565b9050919050565b7f4e487b7100000000000000000000000000000000000000000000000000000000600052601160045260246000fd5b6000611c7c82611593565b9150611c8783611593565b9250828203905081811115611c9f57611c9e611c42565b5b92915050565b6000611cb082611593565b9150611cbb83611593565b9250828201905080821115611cd357611cd2611c42565b5b92915050565b6000611ce482611593565b9150611cef83611593565b9250828202611cfd81611593565b91508282048414831517611d1457611d13611c42565b5b5092915050565b7f496e636f727265637420616d6f756e74206f662045746865722073656e740000600082015250565b6000611d51601e8361147a565b9150611d5c82611d1b565b602082019050919050565b60006020820190508181036000830152611d8081611d44565b9050919050565b60008160011c9050919050565b6000808291508390505b6001851115611dde57808604811115611dba57611db9611c42565b5b6001851615611dc95780820291505b8081029050611dd785611d87565b9450611d9e565b94509492505050565b600082611df75760019050611eb3565b81611e055760009050611eb3565b8160018114611e1b5760028114611e2557611e54565b6001915050611eb3565b60ff841115611e3757611e36611c42565b5b8360020a915084821115611e4e57611e4d611c42565b5b50611eb3565b5060208310610133831016604e8410600b8410161715611e895782820a905083811115611e8457611e83611c42565b5b611eb3565b611e968484846001611d94565b92509050818404811115611ead57611eac611c42565b5b81810290505b9392505050565b6000611ec582611593565b9150611ed083611593565b9250611efd7fffffffffffffffffffffffffffffffffffffffffffffffffffffffffffffffff8484611de7565b905092915050565b7f496e73756666696369656e7420746f6b656e2062616c616e6365000000000000600082015250565b6000611f3b601a8361147a565b9150611f4682611f05565b602082019050919050565b60006020820190508181036000830152611f6a81611f2e565b9050919050565b60006040820190508181036000830152611f8b81856114c6565b9050611f9a602083018461163f565b9392505050565b7f496e76616c696420636172626f6e206f666673657420616d6f756e7400000000600082015250565b6000611fd7601c8361147a565b9150611fe282611fa1565b602082019050919050565b6000602082019050818103600083015261200681611fca565b905091905056fea2646970667358221220aa9379f339ef577854ce3e8a02fa7c4ca95c2b0ef5d59729c5263eb187c2bb4964736f6c63430008130033",
  "linkReferences": {},
  "deployedLinkReferences": {}
}