{
  "contractName": "CarbonChain",
  "abi": [
    {
      "inputs": [
        {
          "internalType": "string",
          "name": "tokenName",
          "type": "string"
        },
        {
          "internalType": "string",
          "name": "tokenSymbol",
          "type": "string"
        },
        {
          "internalType": "uint8",
          "name": "decimalUnits",
          "type": "uint8"
        },
        {
          "internalType": "uint256",
          "name": "initialSupply",
          "type": "uint256"
        },
        {
          "internalType": "uint256",
          "name": "pricePerToken",
          "type": "uint256"
        }
      ],
      "stateMutability": "nonpayable",
      "type": "constructor"
    },
    {
      "anonymous": false,
      "inputs": [
        {
          "indexed": true,
          "internalType": "address",
          "name": "owner",
          "type": "address"
        },
        {
          "indexed": true,
          "internalType": "address",
          "name": "spender",
          "type": "address"
        },
        {
          "indexed": false,
          "internalType": "uint256",
          "name": "value",
          "type": "uint256"
        }
      ],
      "name": "Approval",
      "type": "event"
    },
    {
      "anonymous": false,
      "inputs": [
        {
          "indexed": true,
          "internalType": "address",
          "name": "account",
          "type": "address"
        },
        {
          "indexed": false,
          "internalType": "uint256",
          "name": "amount",
          "type": "uint256"
        }
      ],
      "name": "CarbonOffsetsClaimed",
      "type": "event"
    },
    {
      "anonymous": false,
      "inputs": [
        {
          "indexed": false,
          "internalType": "string",
          "name": "cid",
          "type": "string"
        }
      ],
      "name": "Googledeets",
      "type": "event"
    },
    {
      "anonymous": false,
      "inputs": [
        {
          "indexed": true,
          "internalType": "address",
          "name": "buyer",
          "type": "address"
        },
        {
          "indexed": false,
          "internalType": "uint256",
          "name": "amount",
          "type": "uint256"
        }
      ],
      "name": "TokensPurchased",
      "type": "event"
    },
    {
      "anonymous": false,
      "inputs": [
        {
          "indexed": true,
          "internalType": "address",
          "name": "seller",
          "type": "address"
        },
        {
          "indexed": false,
          "internalType": "uint256",
          "name": "amount",
          "type": "uint256"
        }
      ],
      "name": "TokensSold",
      "type": "event"
    },
    {
      "anonymous": false,
      "inputs": [
        {
          "indexed": true,
          "internalType": "address",
          "name": "from",
          "type": "address"
        },
        {
          "indexed": true,
          "internalType": "address",
          "name": "to",
          "type": "address"
        },
        {
          "indexed": false,
          "internalType": "uint256",
          "name": "value",
          "type": "uint256"
        }
      ],
      "name": "Transfer",
      "type": "event"
    },
    {
      "inputs": [
        {
          "internalType": "address",
          "name": "",
          "type": "address"
        },
        {
          "internalType": "address",
          "name": "",
          "type": "address"
        }
      ],
      "name": "allowance",
      "outputs": [
        {
          "internalType": "uint256",
          "name": "",
          "type": "uint256"
        }
      ],
      "stateMutability": "view",
      "type": "function",
      "constant": true
    },
    {
      "inputs": [
        {
          "internalType": "address",
          "name": "",
          "type": "address"
        }
      ],
      "name": "carbonOffsets",
      "outputs": [
        {
          "internalType": "uint256",
          "name": "",
          "type": "uint256"
        }
      ],
      "stateMutability": "view",
      "type": "function",
      "constant": true
    },
    {
      "inputs": [],
      "name": "decimals",
      "outputs": [
        {
          "internalType": "uint8",
          "name": "",
          "type": "uint8"
        }
      ],
      "stateMutability": "view",
      "type": "function",
      "constant": true
    },
    {
      "inputs": [],
      "name": "name",
      "outputs": [
        {
          "internalType": "string",
          "name": "",
          "type": "string"
        }
      ],
      "stateMutability": "view",
      "type": "function",
      "constant": true
    },
    {
      "inputs": [],
      "name": "symbol",
      "outputs": [
        {
          "internalType": "string",
          "name": "",
          "type": "string"
        }
      ],
      "stateMutability": "view",
      "type": "function",
      "constant": true
    },
    {
      "inputs": [
        {
          "internalType": "address",
          "name": "",
          "type": "address"
        }
      ],
      "name": "tokenBalance",
      "outputs": [
        {
          "internalType": "uint256",
          "name": "",
          "type": "uint256"
        }
      ],
      "stateMutability": "view",
      "type": "function",
      "constant": true
    },
    {
      "inputs": [],
      "name": "tokenPrice",
      "outputs": [
        {
          "internalType": "uint256",
          "name": "",
          "type": "uint256"
        }
      ],
      "stateMutability": "view",
      "type": "function",
      "constant": true
    },
    {
      "inputs": [],
      "name": "totalSupply",
      "outputs": [
        {
          "internalType": "uint256",
          "name": "",
          "type": "uint256"
        }
      ],
      "stateMutability": "view",
      "type": "function",
      "constant": true
    },
    {
      "inputs": [
        {
          "internalType": "address",
          "name": "account",
          "type": "address"
        }
      ],
      "name": "balanceOf",
      "outputs": [
        {
          "internalType": "uint256",
          "name": "",
          "type": "uint256"
        }
      ],
      "stateMutability": "view",
      "type": "function",
      "constant": true
    },
    {
      "inputs": [
        {
          "internalType": "address",
          "name": "to",
          "type": "address"
        },
        {
          "internalType": "uint256",
          "name": "value",
          "type": "uint256"
        },
        {
          "internalType": "string",
          "name": "cid",
          "type": "string"
        }
      ],
      "name": "transfer",
      "outputs": [
        {
          "internalType": "bool",
          "name": "",
          "type": "bool"
        }
      ],
      "stateMutability": "nonpayable",
      "type": "function"
    },
    {
      "inputs": [
        {
          "internalType": "address",
          "name": "spender",
          "type": "address"
        },
        {
          "internalType": "uint256",
          "name": "value",
          "type": "uint256"
        }
      ],
      "name": "approve",
      "outputs": [
        {
          "internalType": "bool",
          "name": "",
          "type": "bool"
        }
      ],
      "stateMutability": "nonpayable",
      "type": "function"
    },
    {
      "inputs": [
        {
          "internalType": "address",
          "name": "from",
          "type": "address"
        },
        {
          "internalType": "address",
          "name": "to",
          "type": "address"
        },
        {
          "internalType": "uint256",
          "name": "value",
          "type": "uint256"
        }
      ],
      "name": "transferFrom",
      "outputs": [
        {
          "internalType": "bool",
          "name": "",
          "type": "bool"
        }
      ],
      "stateMutability": "nonpayable",
      "type": "function"
    },
    {
      "inputs": [
        {
          "internalType": "uint256",
          "name": "numberOfTokens",
          "type": "uint256"
        }
      ],
      "name": "buyTokens",
      "outputs": [],
      "stateMutability": "payable",
      "type": "function",
      "payable": true
    },
    {
      "inputs": [
        {
          "internalType": "uint256",
          "name": "numberOfTokens",
          "type": "uint256"
        }
      ],
      "name": "sellTokens",
      "outputs": [],
      "stateMutability": "nonpayable",
      "type": "function"
    },
    {
      "inputs": [
        {
          "internalType": "uint256",
          "name": "amount",
          "type": "uint256"
        }
      ],
      "name": "claimCarbonOffsets",
      "outputs": [],
      "stateMutability": "nonpayable",
      "type": "function"
    }
  ],
  "bytecode": "0x60806040523480156200001157600080fd5b506040516200150938038062001509833981016040819052620000349162000202565b845162000049906004906020880190620000b1565b5083516200005f906005906020870190620000b1565b506006805460ff191660ff85169081179091556200007f90600a620002e1565b6200008b9083620003d6565b600381905560079190915533600090815260208190526040902055506200046192505050565b828054620000bf90620003f8565b90600052602060002090601f016020900481019282620000e357600085556200012e565b82601f10620000fe57805160ff19168380011785556200012e565b828001600101855582156200012e579182015b828111156200012e57825182559160200191906001019062000111565b506200013c92915062000140565b5090565b5b808211156200013c576000815560010162000141565b600082601f83011262000168578081fd5b81516001600160401b03808211156200018557620001856200044b565b6040516020601f8401601f1916820181018381118382101715620001ad57620001ad6200044b565b6040528382528584018101871015620001c4578485fd5b8492505b83831015620001e75785830181015182840182015291820191620001c8565b83831115620001f857848185840101525b5095945050505050565b600080600080600060a086880312156200021a578081fd5b85516001600160401b038082111562000231578283fd5b6200023f89838a0162000157565b9650602088015191508082111562000255578283fd5b50620002648882890162000157565b945050604086015160ff811681146200027b578182fd5b6060870151608090970151959894975095949392505050565b80825b6001808611620002a85750620002d8565b818704821115620002bd57620002bd62000435565b80861615620002cb57918102915b9490941c93800262000297565b94509492505050565b6000620002f26000198484620002f9565b9392505050565b6000826200030a57506001620002f2565b816200031957506000620002f2565b81600181146200033257600281146200033d5762000371565b6001915050620002f2565b60ff84111562000351576200035162000435565b6001841b9150848211156200036a576200036a62000435565b50620002f2565b5060208310610133831016604e8410600b8410161715620003a9575081810a83811115620003a357620003a362000435565b620002f2565b620003b8848484600162000294565b808604821115620003cd57620003cd62000435565b02949350505050565b6000816000190483118215151615620003f357620003f362000435565b500290565b6002810460018216806200040d57607f821691505b602082108114156200042f57634e487b7160e01b600052602260045260246000fd5b50919050565b634e487b7160e01b600052601160045260246000fd5b634e487b7160e01b600052604160045260246000fd5b61109880620004716000396000f3fe6080604052600436106100e85760003560e01c806356b8c7241161008a57806395d89b411161005957806395d89b4114610253578063b613321714610268578063dd62ed3e14610288578063eedc966a146102a8576100e8565b806356b8c724146101de5780636c11bcd3146101fe57806370a082311461021e5780637ff9b5961461023e576100e8565b806323b872dd116100c657806323b872dd146101675780632670e79d14610187578063313ce567146101a75780633610724e146101c9576100e8565b806306fdde03146100ed578063095ea7b31461011857806318160ddd14610145575b600080fd5b3480156100f957600080fd5b506101026102c8565b60405161010f9190610c60565b60405180910390f35b34801561012457600080fd5b50610138610133366004610b57565b610356565b60405161010f9190610c55565b34801561015157600080fd5b5061015a6103f2565b60405161010f9190610e82565b34801561017357600080fd5b50610138610182366004610b1c565b6103f8565b34801561019357600080fd5b5061015a6101a2366004610ad0565b6105cb565b3480156101b357600080fd5b506101bc6105dd565b60405161010f9190610e8b565b6101dc6101d7366004610c3d565b6105e6565b005b3480156101ea57600080fd5b506101386101f9366004610b80565b610707565b34801561020a57600080fd5b506101dc610219366004610c3d565b610855565b34801561022a57600080fd5b5061015a610239366004610ad0565b610984565b34801561024a57600080fd5b5061015a6109a3565b34801561025f57600080fd5b506101026109a9565b34801561027457600080fd5b506101dc610283366004610c3d565b6109b6565b34801561029457600080fd5b5061015a6102a3366004610aea565b610a8a565b3480156102b457600080fd5b5061015a6102c3366004610ad0565b610aa7565b600480546102d590610ffb565b80601f016020809104026020016040519081016040528092919081815260200182805461030190610ffb565b801561034e5780601f106103235761010080835404028352916020019161034e565b820191906000526020600020905b81548152906001019060200180831161033157829003601f168201915b505050505081565b60006001600160a01b0383166103875760405162461bcd60e51b815260040161037e90610e4b565b60405180910390fd5b3360008181526001602090815260408083206001600160a01b03881680855292529182902085905590519091907f8c5be1e5ebec7d5bd14f71427d1e84f3dd0314c0f7b2291e5b200ac8c7c3b925906103e1908690610e82565b60405180910390a350600192915050565b60035481565b60006001600160a01b0384166104205760405162461bcd60e51b815260040161037e90610e1b565b6001600160a01b0383166104465760405162461bcd60e51b815260040161037e90610dad565b600082116104665760405162461bcd60e51b815260040161037e90610d7f565b6001600160a01b03841660009081526020819052604090205482111561049e5760405162461bcd60e51b815260040161037e90610d51565b6001600160a01b03841660009081526001602090815260408083203384529091529020548211156104e15760405162461bcd60e51b815260040161037e90610d21565b6001600160a01b03841660009081526020819052604081208054849290610509908490610fe4565b90915550506001600160a01b03831660009081526020819052604081208054849290610536908490610e99565b90915550506001600160a01b03841660009081526001602090815260408083203384529091528120805484929061056e908490610fe4565b92505081905550826001600160a01b0316846001600160a01b03167fddf252ad1be2c89b69c2b068fc378daa952ba7f163c4a11628f55a4df523b3ef846040516105b89190610e82565b60405180910390a35060015b9392505050565b60026020526000908152604090205481565b60065460ff1681565b6007546105f39082610fc5565b34146106115760405162461bcd60e51b815260040161037e90610cb3565b600081116106315760405162461bcd60e51b815260040161037e90610d7f565b6006546000906106459060ff16600a610ef7565b61064f9083610fc5565b306000908152602081905260409020549091508111156106815760405162461bcd60e51b815260040161037e90610de4565b30600090815260208190526040812080548392906106a0908490610fe4565b909155505033600090815260208190526040812080548392906106c4908490610e99565b909155505060405133907f8f28852646c20cc973d3a8218f7eefed58c25c909f78f0265af4818c3d4dc271906106fb908490610e82565b60405180910390a25050565b60006001600160a01b03841661072f5760405162461bcd60e51b815260040161037e90610dad565b6000831161074f5760405162461bcd60e51b815260040161037e90610d7f565b3360009081526020819052604090205483111561077e5760405162461bcd60e51b815260040161037e90610d51565b336000908152602081905260408120805485929061079d908490610fe4565b90915550506001600160a01b038416600090815260208190526040812080548592906107ca908490610e99565b90915550506040516001600160a01b0385169033907fddf252ad1be2c89b69c2b068fc378daa952ba7f163c4a11628f55a4df523b3ef9061080c908790610e82565b60405180910390a37f61a3d4ded8fe2befab7c6baed5395a322aa60e1d55be7e05e641a91a9d73428f826040516108439190610c60565b60405180910390a15060019392505050565b600081116108755760405162461bcd60e51b815260040161037e90610d7f565b336000908152602081905260409020548111156108a45760405162461bcd60e51b815260040161037e90610d51565b6006546000906108b89060ff16600a610ef7565b6108c29083610fc5565b336000908152602081905260408120805492935083929091906108e6908490610fe4565b9091555050306000908152602081905260408120805483929061090a908490610e99565b909155505060075433906108fc906109229085610fc5565b6040518115909202916000818181858888f1935050505015801561094a573d6000803e3d6000fd5b50336001600160a01b03167f57d61f3ccd4ccd25ec5d234d6049553a586fac134c85c98d0b0d9d5724f4e43e826040516106fb9190610e82565b6001600160a01b0381166000908152602081905260409020545b919050565b60075481565b600580546102d590610ffb565b600081116109d65760405162461bcd60e51b815260040161037e90610cea565b33600090815260208190526040902054811115610a055760405162461bcd60e51b815260040161037e90610d51565b3360009081526020819052604081208054839290610a24908490610fe4565b90915550503360009081526002602052604081208054839290610a48908490610e99565b909155505060405133907f8a6dcaaa904eb3b997e19410c9974fb615a270c3c62e33ae02d9d80a08439e2390610a7f908490610e82565b60405180910390a250565b600160209081526000928352604080842090915290825290205481565b60006020819052908152604090205481565b80356001600160a01b038116811461099e57600080fd5b600060208284031215610ae1578081fd5b6105c482610ab9565b60008060408385031215610afc578081fd5b610b0583610ab9565b9150610b1360208401610ab9565b90509250929050565b600080600060608486031215610b30578081fd5b610b3984610ab9565b9250610b4760208501610ab9565b9150604084013590509250925092565b60008060408385031215610b69578182fd5b610b7283610ab9565b946020939093013593505050565b600080600060608486031215610b94578283fd5b610b9d84610ab9565b92506020808501359250604085013567ffffffffffffffff80821115610bc1578384fd5b818701915087601f830112610bd4578384fd5b813581811115610be657610be661104c565b604051601f8201601f1916810185018381118282101715610c0957610c0961104c565b60405281815283820185018a1015610c1f578586fd5b81858501868301378585838301015280955050505050509250925092565b600060208284031215610c4e578081fd5b5035919050565b901515815260200190565b6000602080835283518082850152825b81811015610c8c57858101830151858201604001528201610c70565b81811115610c9d5783604083870101525b50601f01601f1916929092016040019392505050565b6020808252601e908201527f496e636f727265637420616d6f756e74206f662045746865722073656e740000604082015260600190565b6020808252601c908201527f496e76616c696420636172626f6e206f666673657420616d6f756e7400000000604082015260600190565b602080825260169082015275496e73756666696369656e7420616c6c6f77616e636560501b604082015260600190565b602080825260149082015273496e73756666696369656e742062616c616e636560601b604082015260600190565b602080825260149082015273125b9d985b1a59081d1bdad95b88185b5bdd5b9d60621b604082015260600190565b60208082526019908201527f496e76616c696420726563697069656e74206164647265737300000000000000604082015260600190565b6020808252601a908201527f496e73756666696369656e7420746f6b656e2062616c616e6365000000000000604082015260600190565b602080825260169082015275496e76616c69642073656e646572206164647265737360501b604082015260600190565b60208082526017908201527f496e76616c6964207370656e6465722061646472657373000000000000000000604082015260600190565b90815260200190565b60ff91909116815260200190565b60008219821115610eac57610eac611036565b500190565b80825b6001808611610ec35750610eee565b818704821115610ed557610ed5611036565b80861615610ee257918102915b9490941c938002610eb4565b94509492505050565b60006105c46000198484600082610f10575060016105c4565b81610f1d575060006105c4565b8160018114610f335760028114610f3d57610f6a565b60019150506105c4565b60ff841115610f4e57610f4e611036565b6001841b915084821115610f6457610f64611036565b506105c4565b5060208310610133831016604e8410600b8410161715610f9d575081810a83811115610f9857610f98611036565b6105c4565b610faa8484846001610eb1565b808604821115610fbc57610fbc611036565b02949350505050565b6000816000190483118215151615610fdf57610fdf611036565b500290565b600082821015610ff657610ff6611036565b500390565b60028104600182168061100f57607f821691505b6020821081141561103057634e487b7160e01b600052602260045260246000fd5b50919050565b634e487b7160e01b600052601160045260246000fd5b634e487b7160e01b600052604160045260246000fdfea2646970667358221220028281ce843995f946b9e489240fdc96ae12924dcd525211c8836e069c031fd164736f6c63430008000033",
  "immutableReferences": {},
  "source": "// SPDX-License-Identifier: GPL-3.0\r\npragma solidity >=0.4.22 <0.9.0; //^0.8.0;\r\n\r\ncontract CarbonChain {\r\n    mapping(address => uint256) public tokenBalance;\r\n    mapping(address => mapping(address => uint256)) public allowance;\r\n    mapping(address => uint256) public carbonOffsets;\r\n\r\n    uint256 public totalSupply;\r\n    string public name;\r\n    string public symbol;\r\n    uint8 public decimals;\r\n    uint256 public tokenPrice;\r\n\r\n    event Transfer(address indexed from, address indexed to, uint256 value);\r\n    event Googledeets(string cid);\r\n    event Approval(address indexed owner, address indexed spender, uint256 value);\r\n    event TokensPurchased(address indexed buyer, uint256 amount);\r\n    event TokensSold(address indexed seller, uint256 amount);\r\n    event CarbonOffsetsClaimed(address indexed account, uint256 amount);\r\n\r\n    constructor(\r\n        string memory tokenName,\r\n        string memory tokenSymbol,\r\n        uint8 decimalUnits,\r\n        uint256 initialSupply,\r\n        uint256 pricePerToken\r\n    ) {\r\n        name = tokenName;\r\n        symbol = tokenSymbol;\r\n        decimals = decimalUnits;\r\n        totalSupply = initialSupply * 10**uint256(decimalUnits);\r\n        tokenPrice = pricePerToken;\r\n        tokenBalance[msg.sender] = totalSupply;\r\n    }\r\n\r\n    function balanceOf(address account) external view returns (uint256) {\r\n        return tokenBalance[account];\r\n    }\r\n\r\n    function transfer(address to, uint256 value, string memory cid) external returns (bool) {\r\n        require(to != address(0), \"Invalid recipient address\");\r\n        require(value > 0, \"Invalid token amount\");\r\n        require(tokenBalance[msg.sender] >= value, \"Insufficient balance\");\r\n\r\n        tokenBalance[msg.sender] -= value;\r\n        tokenBalance[to] += value;\r\n\r\n        emit Transfer(msg.sender, to, value);\r\n        emit Googledeets(cid);\r\n        return true;\r\n    }\r\n\r\n    function approve(address spender, uint256 value) external returns (bool) {\r\n        require(spender != address(0), \"Invalid spender address\");\r\n\r\n        allowance[msg.sender][spender] = value;\r\n        emit Approval(msg.sender, spender, value);\r\n        return true;\r\n    }\r\n\r\n    function transferFrom(\r\n        address from,\r\n        address to,\r\n        uint256 value\r\n    ) external returns (bool) {\r\n        require(from != address(0), \"Invalid sender address\");\r\n        require(to != address(0), \"Invalid recipient address\");\r\n        require(value > 0, \"Invalid token amount\");\r\n        require(tokenBalance[from] >= value, \"Insufficient balance\");\r\n        require(allowance[from][msg.sender] >= value, \"Insufficient allowance\");\r\n\r\n        tokenBalance[from] -= value;\r\n        tokenBalance[to] += value;\r\n        allowance[from][msg.sender] -= value;\r\n\r\n        emit Transfer(from, to, value);\r\n        return true;\r\n    }\r\n\r\n    function buyTokens(uint256 numberOfTokens) external payable {\r\n        require(msg.value == numberOfTokens * tokenPrice, \"Incorrect amount of Ether sent\");\r\n        require(numberOfTokens > 0, \"Invalid token amount\");\r\n\r\n        uint256 tokensToTransfer = numberOfTokens * 10**uint256(decimals);\r\n        require(tokenBalance[address(this)] >= tokensToTransfer, \"Insufficient token balance\");\r\n\r\n        tokenBalance[address(this)] -= tokensToTransfer;\r\n        tokenBalance[msg.sender] += tokensToTransfer;\r\n\r\n        emit TokensPurchased(msg.sender, tokensToTransfer);\r\n    }\r\n\r\n    function sellTokens(uint256 numberOfTokens) external {\r\n        require(numberOfTokens > 0, \"Invalid token amount\");\r\n        require(tokenBalance[msg.sender] >= numberOfTokens, \"Insufficient balance\");\r\n\r\n        uint256 tokensToTransfer = numberOfTokens * 10**uint256(decimals);\r\n\r\n        tokenBalance[msg.sender] -= tokensToTransfer;\r\n        tokenBalance[address(this)] += tokensToTransfer;\r\n\r\n        payable(msg.sender).transfer(numberOfTokens * tokenPrice);\r\n\r\n        emit TokensSold(msg.sender, tokensToTransfer);\r\n    }\r\n\r\n    function claimCarbonOffsets(uint256 amount) external {\r\n        require(amount > 0, \"Invalid carbon offset amount\");\r\n        require(tokenBalance[msg.sender] >= amount, \"Insufficient balance\");\r\n\r\n        tokenBalance[msg.sender] -= amount;\r\n        carbonOffsets[msg.sender] += amount;\r\n\r\n        emit CarbonOffsetsClaimed(msg.sender, amount);\r\n    }\r\n}",
  "sourcePath": "C:\\Users\\cdaou\\OneDrive\\Documents\\MSBDGA\\Github\\AmazoniaCoin\\app\\contracts\\amazoncoin.sol",
  "compiler": {
    "name": "solc",
    "version": "0.8.0+commit.c7dfd78e.Emscripten.clang"
  },
  "schemaVersion": "3.4.16",
  "updatedAt": "2024-01-05T10:46:12.127Z",
  "networkType": "ethereum",
  "devdoc": {
    "kind": "dev",
    "methods": {},
    "version": 1
  },
  "userdoc": {
    "kind": "user",
    "methods": {},
    "version": 1
  }
}